:10000000B2C30000DFC30000DDC30000DBC300009B
:100010000C941F0ED7C300000C94AB0A0C94F70984
:10002000D1C30000CFC30000CDC30000CBC300008C
:10003000C9C30000C7C30000C5C30000C3C300009C
:10004000C1C30000BFC300000C945A1DBBC3000015
:10005000B9C30000B7C30000B5C30000B3C30000BC
:10006000B1C30000AFC30000ADC30000ABC30000CC
:10007000A9C30000A7C30000A5C30000A3C30000DC
:10008000A1C300009FC300009DC3000000000C003E
:100090001800240030003C004800540060006C0050
:1000A0007800840090009C00A800B400C000CB0041
:1000B000D600E100EC00F70002010D011801230158
:1000C0002E01390144014F015A01650170017A0185
:1000D00084018E019801A201AC01B601C001CA01E0
:1000E000D401DE01E801F201FC010602100219024E
:1000F00022022B0234023D0246024F0258026102E4
:100100006A0273027C0285028E029702A002A80294
:10011000B002B802C002C802D002D802E002E8026F
:10012000F002F80200030803100318030C0C0C0C77
:100130000C0C0C0C0C0C0C0C0C0C0C0C0B0B0B0B03
:100140000B0B0B0B0B0B0B0B0B0B0B0B0A0A0A0A03
:100150000A0A0A0A0A0A0A0A0A0A0A0A0909090903
:100160000909090909090909090909090808080803
:1001700008080808080808080808080896979A9BBD
:100180009D9E9FA6A7ABACADAEAFB2B3B4B5B6B7AC
:10019000B9BABBBCBDBEBFCBCDCECFD3D6D7D9DAD3
:1001A000DBDCDDDEDFE5E6E7E9EAEBECEDEEEFF2E6
:1001B000F3F4F5F6F7F9FAFBFCFDFEFF0001FFFF93
:1001C0000203FF040506FFFFFFFFFFFF0708FFFF15
:1001D000FF090A0B0C0DFFFF0E0F10111213FF1475
:1001E00015161718191AFFFFFFFFFFFFFFFFFFFF8C
:1001F000FF1BFF1C1D1EFFFFFF1FFFFF2021FF2213
:10020000232425262728FFFFFFFFFF292A2BFF2C69
:100210002D2E2F303132FFFF333435363738FF394A
:100220003A3B3C3D3E3F0000211042206330844079
:10023000A550C660E770088129914AA16BB18CC1B5
:10024000ADD1CEE1EFF13112100273325222B5522C
:100250009442F772D662399318837BB35AA3BDD305
:100260009CC3FFF3DEE36224433420040114E664FC
:10027000C774A44485546AA54BB528850995EEE555
:10028000CFF5ACC58DD55336722611163006D7760C
:10029000F6669556B4465BB77AA719973887DFF7A5
:1002A000FEE79DD7BCC7C448E5588668A7784008D4
:1002B000611802282338CCC9EDD98EE9AFF94889F5
:1002C00069990AA92BB9F55AD44AB77A966A711A6C
:1002D000500A333A122AFDDBDCCBBFFB9EEB799B45
:1002E000588B3BBB1AABA66C877CE44CC55C222CBC
:1002F000033C600C411CAEED8FFDECCDCDDD2AAD95
:100300000BBD688D499D977EB66ED55EF44E133E4B
:10031000322E511E700E9FFFBEEFDDDFFCCF1BBFE4
:100320003AAF599F788F8891A981CAB1EBA10CD1BE
:100330002DC14EF16FE18010A100C230E3200450C6
:10034000254046706760B9839893FBA3DAB33DC339
:100350001CD37FE35EF3B1029012F322D232354216
:10036000145277625672EAB5CBA5A89589856EF5C9
:100370004FE52CD50DC5E234C324A0148104667466
:10038000476424540544DBA7FAB79987B8975FE719
:100390007EF71DC73CD7D326F2369106B0165766B6
:1003A0007676154634564CD96DC90EF92FE9C899A1
:1003B000E9898AB9ABA94458654806782768C01806
:1003C000E1088238A3287DCB5CDB3FEB1EFBF98B79
:1003D000D89BBBAB9ABB754A545A376A167AF10A56
:1003E000D01AB32A923A2EFD0FED6CDD4DCDAABD89
:1003F0008BADE89DC98D267C076C645C454CA23CA6
:10040000832CE01CC10C1FEF3EFF5DCF7CDF9BAF58
:10041000BABFD98FF89F176E367E554E745E932EF5
:10042000B23ED10EF01E20202020202020202020AF
:100430002020202020202020202020002049646C23
:1004400065002052656164005772697465005472DA
:1004500061636B202020205369646500313434309F
:100460004B204469736B436F707920696D616765D8
:10047000003830304B204469736B436F70792069CA
:100480006D616765003430304B204469736B436F96
:10049000707920696D61676500313434304B2072AA
:1004A000617720696D616765003830304B2072617B
:1004B0007720696D616765003430304B2072617759
:1004C00020696D61676500696D616765206E6F7495
:1004D00020636F6E746967756F7573006572726FF4
:1004E00072206F70656E696E6720696D6167650067
:1004F000505245563A2043616E63656C004E455834
:10050000543A204C6F6164206669726D7761726540
:1005100000626567696E0052656C65617365206293
:100520007574746F6E7320746F0043504C44204692
:1005300049524D574152452055504441544500437E
:100540006F6E74726173743A200053454C45435486
:100550003A2053617665004E4558543A2044617202
:100560006B657200505245563A204C696768746555
:100570007200626567696E0052656C656173652023
:10058000627574746F6E7320746F00434F4E5452D3
:100590004153542041444A5553544D454E54004113
:1005A00070702056657273696F6E20312E30204C4A
:1005B000002020202020464C4F50505920454D55BA
:1005C00020202020202000507265737320616E79F6
:1005D00020627574746F6E006669726D7761726502
:1005E0002E78766600436F756C64206E6F74206F92
:1005F00070656E005570646174696E67206669721B
:100600006D776172652E2E2E00464154414C204577
:1006100052524F52202020202020202020200057FE
:1006200052495445204552524F522020202020202C
:1006300020202020000000000017000300031F0AF4
:100640001F0A1F050904120F171C000303000E11D7
:10065000110E00050205040E041008000404040035
:1006600010001804031E110F021F00191512151592
:100670000A07041F1715091E151D1905031A150B66
:1006800017150F000A00040C04040E1F0A0A0A1FA3
:100690000E040115030E15161E051E1F150A0E1158
:1006A000111F110E1F15151F05050E151D1F041F07
:1006B000111F1108100F1F041B1F10101F061F1FF2
:1006C0000E1F0E110E1F05020E191E1F0D161215FC
:1006D00009011F010F101F0718071F0C1F1B041B08
:1006E000031C031915131F101002040810101F0417
:1006F00006041010100003031A161C1F120C0C1213
:10070000120C121F0C1A16041E050C2A1E1F021CA6
:10071000001D0010201D1F0C12111F101E0E1E1E8A
:10072000021C0C120C3E120C0C123E1C0202141E77
:100730000A021F120E101E0E180E1E1C1E120C1284
:1007400006281E1A1F16041B11001F00111B040887
:100750000C047C3C3E5E2B3D3F2F5B5D3B2C2A22F4
:100760005C00451D491D11241FBECFEFD0E4DEBF44
:10077000CDBF13E0A0E0B1E0EAE9F9E700E00BBF8C
:1007800002C007900D92A831B107D9F717E3A8E18D
:10079000B3E001C01D92AD3DB107E1F717E000E005
:1007A000C4E6D7E040E006C022974109FE014BBFF6
:1007B0000E947A39C236D1074007B1F70E94191852
:1007C0000C94BC3C1DCC2F923F924F925F926F9243
:1007D0007F928F929F92AF92BF92CF92DF92EF92D1
:1007E000FF920F931F93DF93CF93CDB7DEB72D9773
:1007F0000FB6F894DEBF0FBECDBF8B014A013E019C
:100800000894611C711CD301E4E2F1E02DE0019039
:100810000D922150E1F7BB244424AA2452E8552E1E
:1008200042E2E42EF12CE80EF91E3EE0C32ED12C5C
:10083000CC0EDD1E22E8222E312C280C391CC701DB
:10084000B80140E250E00E94C92480329105A1F431
:10085000D8011B968C911B9790E09C012F733070F0
:100860002F30310559F183FD23C0F8018081853E89
:1008700019F1882309F05AC0D4011C9280E02D960A
:100880000FB6F894DEBF0FBECDBFCF91DF911F91A1
:100890000F91FF90EF90DF90CF90BF90AF909F901F
:1008A0008F907F906F905F904F903F902F90089522
:1008B000F8018081882301F3BB24C1CFBB2021F53F
:1008C0008C91982F907E903409F0B9CF9FE1A92E9A
:1008D000A8221D964C90F1011082A5E7B0E085E7B3
:1008E000582EF301AD01480D591D81919801280F33
:1008F000311DD9018C91DA018D93AD01EC15FD0507
:10090000A1F7BB24B3949BCFD8018C91AA948A15EC
:1009100099F61D968C911D97841571F6552009F452
:100920008ECFB3EF5B0EA52DB0E0DBCF8E3221F280
:10093000BB2081F031962BE090E001C08191392FEE
:100940003795332737959695932B980F2150B1F70C
:10095000941531F0C801B4010E94092481E08FCFC1
:10096000FA2DF130B9F7452D50E043385105B4F771
:100970009A0160E080E090E0880D991D280D391DF6
:10098000D9012C91FC0120836F5F862F90E09C01A0
:10099000240F351F233831057CF381E070CFEF92AF
:1009A000FF920F931F93DF93CF93CDB7DEB7A99735
:1009B0000FB6F894DEBF0FBECDBFFC01DB018C91FA
:1009C0008E32A9F1838590E0887190708031910515
:1009D00009F466C0009759F5848D958DA68DB78D65
:1009E000803020E4920726E0A20720E0B20709F455
:1009F00059C0803020E892072CE0A20720E0B2071F
:100A000009F454C0803020E8920726E1A20720E0D4
:100A1000B20709F449C081509044A640B0408F3FCE
:100A20002FE2920721E1A20720E0B20778F020E050
:100A3000822FA9960FB6F894DEBF0FBECDBFCF911F
:100A4000DF911F910F91FF90EF900895CF017E01EC
:100A50000894E11CF11CB7010E9409241E86198A22
:100A60008E01025F1F4FC801B70141E00E94342A86
:100A7000882371F0C80165E773E340E052E00E940B
:100A8000C924C8010E9433278091C733813081F087
:100A90008989882361F2C8010E94332720E0C8CFEA
:100AA00021E0C6CF23E0C4CF25E0C2CF24E0C0CFF1
:100AB0008091C833882361F78091B63390E0A0E03D
:100AC000B0E0BA2FA92F982F88272091B733820F33
:100AD000911DA11DB11DB695A79597958795B695C2
:100AE000A79597958795803921E0920720E0A20786
:100AF00020E0B207F1F0803223E0920720E0A20765
:100B000020E0B207A1F0803A25E0920720E0A2079A
:100B100020E0B20709F0BCCF28E08989882309F4D6
:100B200087CFC80129A70E94332729A581CF27E0B5
:100B3000F4CF26E0F2CF2F923F924F925F926F92C6
:100B40007F928F929F92AF92BF92CF92DF92EF925D
:100B5000FF920F931F93DF93CF93CDB7DEB7C05FA4
:100B6000D0400FB6F894DEBF0FBECDBF7C0110920F
:100B7000190310921803829640E050E0BA010E94D7
:100B80004B2603E4C02ED12CCC0EDD1E13E6A12E85
:100B9000B12CAC0EBD1EB4E26B2E712CC701B60198
:100BA000A50111DE8823E1F18091180390911903CA
:100BB00021E08734920708F0A7C1C601B501EFDE36
:100BC000882E882359F38091180390911903869DEC
:100BD0008001879D100D969D100D11240B581C4F00
:100BE000C801B50146E150E00E94B339B8016A5E20
:100BF0007F4FC6010E940924809118039091190328
:100C0000869DF001879DF00D969DF00D1124EB5807
:100C1000FC4F83A201969093190380931803BECFD3
:100C20002091180330911903C751DF4F398328836E
:100C3000C95ED040F70185A182508230A8F184E2DC
:100C400090E0C751DF4FE881F981C95ED040E89F4D
:100C50008001E99F100DF89F100D11240B581C4FB7
:100C6000C80160E071E046E150E00E94B339C8017C
:100C7000469660E071E04DE050E00E94B33982E0BA
:100C8000F80183A3C751DF4F28813981C95ED04065
:100C90002F5F3F4FC751DF4F39832883C95ED04054
:100CA0003093190320931803A8E92A2EA3E03A2EC3
:100CB00080E090E07E010894E11CF11CF7E1CF2E6A
:100CC000D12CCC0EDD1EC751DF4FE881F981C95E02
:100CD000D0408E179F0708F01EC1FC013196C3510A
:100CE000DF4FF983E883CD5ED040C751DF4F2881C5
:100CF0003981C95ED040E217F30708F026C1C1016F
:100D00008397F101B496C151DF4FF983E883CF5E39
:100D1000D0405F01C351DF4F48805980CD5ED04045
:100D2000CA51DF4F8883C65ED04091012D503040BC
:100D3000C551DF4F39832883CB5ED040C951DF4F87
:100D400039822882C75ED040392EC701CA51DF4F91
:100D50006881C65ED040732D46E150E00E94B339F1
:100D600088240AC00E0D1F1DF801808190E00E94AA
:100D70007E39F80180838394F70101900020E9F720
:100D80003197EE19FF09082D10E00E171F0750F3D9
:100D9000EDED8E2EEFEF9E2E8A0C9B1C682C292CDD
:100DA000C601B40146E150E00E94B33977240AC07D
:100DB0000C0D1D1DF801808190E00E947E39F80124
:100DC00080837394F60101900020E9F73197EC19C4
:100DD000FD09072D10E00E171F0750F3C701B601DC
:100DE00046E150E00E94A539282F392FC951DF4F25
:100DF000E881F981C75ED04080818150823008F45B
:100E000080C0F50180818150823008F477C01216CD
:100E100013060CF055C0CE018D96CA51DF4F688184
:100E2000C65ED040732D46E150E00E94B339CA51EE
:100E3000DF4F8881C65ED040932D662D722D46E12E
:100E400050E00E94B339862D922DBE01635D7F4F25
:100E500046E150E00E94B339CE018D96C551DF4F77
:100E600068817981CB5ED0404DE050E00E94B3397B
:100E700084010A5E1F4FC551DF4F88819981CB5E87
:100E8000D040B8014DE050E00E94B339C801BE0126
:100E9000635D7F4F4DE050E00E94B339C951DF4F91
:100EA000E881F981C75ED0408081F5019081C95108
:100EB000DF4FE881F981C75ED0409083F5018083E0
:100EC0000894411C511C24E230E0A20EB31EC7510D
:100ED000DF4F88819981C95ED0404816590608F4D1
:100EE00034CFC151DF4F28803980CF5ED040C3510D
:100EF000DF4F88819981CD5ED040E5CE28513C4FAF
:100F000086CF285E33407DCFC751DF4F99838883DA
:100F1000C95ED0408FCEC051DF4F0FB6F894DEBF10
:100F20000FBECDBFCF91DF911F910F91FF90EF903A
:100F3000DF90CF90BF90AF909F908F907F906F90F9
:100F40005F904F903F902F900895C1018496C151BA
:100F5000DF4F99838883CF5ED040C3CF8F929F921B
:100F6000AF92BF92CF92DF92EF92FF920F931F93B7
:100F7000CF93DF9380911A0390911B0320911C0360
:100F800030911D032817390728F430931B03209351
:100F90001A03C90104968217930730F42450304095
:100FA00030931B0320931A0380E060E00E949A1D97
:100FB00081E06FE70E948B1DC3E1D0E081E060E437
:100FC0000E948B1D2197D1F783E091E00E948F1E34
:100FD000C3E1D0E081E060E40E948B1D2197D1F74E
:100FE00081E06FE70E948B1D209118033091190357
:100FF0002115310509F464C140911A0350911B0376
:10100000CA0105964817590708F033C1421753071C
:1010100008F02FC164E270E0469F7001479FF00C1A
:10102000569FF00C112488E993E0E80EF91EEA01BE
:1010300091E0C92ED12CBB24B39480911C039091D4
:101040001D03C817D90709F0BB24AC2C80E06C2D18
:101050000E949A1D04E510E007C060E081E00E9454
:101060008B1D0150104049F0BB20B9F36FE781E0C0
:101070000E948B1D01501040B9F781E06A2D0E943B
:101080009A1D870103521040902E812EC8016B2DAE
:1010900043E50E94A61DF70180818150823008F44B
:1010A000BDC0BB2009F0A4C08601219640911A035F
:1010B00050911B03CA010596C817D907E0F120918A
:1010C0001803309119032630310508F047C0EE248B
:1010D000E39482E56E2D0E949A1D81E060E00E94FB
:1010E0008B1D81E060E00E948B1DE3947E2D7630A5
:1010F00081F780911A0390911B039801280F391FE3
:1011000040911C0350911D034217530708F4E2C09D
:101110002150304030931D0320931C0304301105EF
:1011200009F02CCF009709F429CF019790931B0366
:1011300080931A0323CF2091180330911903089448
:10114000C11CD11C64E270E0E60EF71EC217D30783
:1011500008F471CF2630310508F4B9CFE7E2F0E0AA
:101160004E9FC0014F9F900D5E9F900D11248D5397
:101170009F4FB9010E94293988E0E82EE60E83ECE2
:1011800090E0B9010E942939CE2CC61AC8E0D0E0FF
:10119000BB24B39482E56B2D0E949A1D81E060E030
:1011A0000E948B1D4C2F9E01295F3F4F2C173D073E
:1011B0000CF484C060E00AC0E41650F066956068E4
:1011C0004F5F842F90E0281739074CF04C15A0F79B
:1011D00066954F5F842F90E028173907BCF781E0B0
:1011E0000E948B1DB39428967B2D763099F681CF83
:1011F00084E393E0692D782D46E150E00E94B339F5
:10120000B8016A5E7F4F8EE193E04DE050E00E94AE
:10121000B339F701808180934A0346CF89E46A2D70
:101220000E949A1DBB2041F181E06FE70E948B1D57
:1012300081E063E40E948B1D81E06DE50E948B1DBF
:1012400081E06DE50E948B1D81E06DE50E948B1DA4
:1012500081E06BE50E948B1D81E06BE50E948B1D98
:1012600081E063E40E948B1D6FE781E00E948B1D8B
:1012700018CF00E010E027CF81E060E00E948B1DD6
:1012800081E06CE30E948B1D81E062E20E948B1D75
:1012900081E062E20E948B1D81E062E20E948B1D70
:1012A00081E064E20E948B1D81E064E20E948B1D5C
:1012B00081E06CE30E948B1D60E0D7CF60E08FCFB0
:1012C00080E061E00E949A1D8FE091E060E044E5DB
:1012D0000E94A61DDF91CF911F910F91FF90EF907B
:1012E000DF90CF90BF90AF909F908F900895813006
:1012F000910559F0009721F48091A135882309F4D4
:1013000008958EE995E30C94332710929E35109240
:10131000A13508958FE781B9559A209A3A9A3D9A56
:101320003E9A3B9A239A5C9A599A5A9A5F9A5B9A88
:10133000179A589A409A419A289A429A45984698FC
:10134000439A2B9AE3E7F0E0808181608083EDE6A9
:10135000F0E0808182608083808181608083089555
:101360001F93DF93CF93CDB7DEB72A970FB6F894CC
:10137000DEBF0FBECDBFCE010196DC01EEEDF2E087
:101380002AE001900D922150E1F7E0914C03F0E04A
:10139000F595E795F595E795F595E795F595E79535
:1013A0001FB7F894E53008F0E4E0F0E0EE0FFF1F1F
:1013B000E80FF91F20813181220F331F40E050E0F8
:1013C00060E07DE281E391E00E945F3930935B034E
:1013D00020935A031FBF82E086BB2A960FB6F8946B
:1013E000DEBF0FBECDBFCF91DF911F9108951F9239
:1013F0000F920FB60F920BB60F9211242F933F93BB
:101400004F935F936F937F938F939F93AF93BF930C
:10141000CF93DF93EF93FF93489B2FC0E0914C0352
:1014200080915503882309F03DC0F0E0E45DFE4F54
:10143000249130E0220F331F21153105A9F537998A
:101440005DC080914C038F5F80934C0380914C036F
:10145000882309F064C04598429A4899FECF429883
:10146000459A7EDFC0919435D0919535C330D10532
:1014700008F057C081E080935103FF91EF91DF9115
:10148000CF91BF91AF919F918F917F916F915F911C
:101490004F913F912F910F900BBE0F900FBE0F9069
:1014A0001F90189524E230E080E090E040E050E0AA
:1014B00068E188589A4CFC01808180FF03C0683144
:1014C00059F1542F4F5F842F90E0821793070CF14E
:1014D000561708F4B4CF862FE82FF0E0E858FA4CFE
:1014E000908191FF03C0908191609083908194607E
:1014F00090838F5F581780F7379BA3CF80914C0361
:10150000882309F4A3CF80914C03815080934C032E
:101510009DCF4831E9F2CDCF542F642FD3CF459AD8
:101520009BCF8FE593E061E371E046E150E00E94DC
:10153000B339C851DC4FD0937735C09376351092CC
:10154000500381E0809351038093520310929535AC
:10155000109294358FCF1F920F920FB60F920BB649
:101560000F9211241F932F933F934F935F936F9389
:101570007F938F939F93AF93BF93CF93DF93EF931B
:10158000FF9386B190E095958795817090914E0379
:10159000891791F090915803923009F46DC0109220
:1015A0004E0311E010935103C0919435D0919535BD
:1015B000C330D10508F047C086B1817011E08127A2
:1015C000909150038917C9F0809350038091500384
:1015D000882349F58FE781B9469880916B008F7712
:1015E00080936B00C0919435D0919535C330D1056F
:1015F00008F045C081E080935103FF91EF91DF91A6
:10160000CF91BF91AF919F918F917F916F915F919A
:101610004F913F912F911F910F900BBE0F900FBED6
:101620000F901F90189511B8469A80916B008068B2
:1016300080936B0080B180788093933510929535BC
:1016400010929435D7CF8FE593E061E371E046E1E6
:1016500050E00E94B339C053D84FD0937735C09330
:101660007635109250031093510310935203109249
:10167000953510929435A0CF80934E0392CF8FE58D
:1016800093E061E371E046E150E00E94B339C85451
:10169000D44FD0937735C093763510925003109382
:1016A0005103109352031092953510929435A2CFA6
:1016B0001F93E0B1E0688091943590919535843026
:1016C000910588F48330910509F487C0DC01A153AA
:1016D000BD4F2C912E1709F404C11092953510922C
:1016E00094351F910895F0E0EA5DFE4FE49132E0F9
:1016F0008F3B930748F59C012370307022303105F1
:1017000009F4BBC02330310509F449C1213031054A
:1017100009F418C1EE0FEE0FE093963540919A351B
:1017200050E09A01220F232F221F330B20939B3569
:10173000440F551F422B40939A350196909395354F
:10174000809394351F910895F2E08F3B9F0709F431
:10175000C1C022E0803C920709F4CEC032E0813C57
:10176000930709F4E2C1F2E0823C9F0709F0B5CF8C
:1017700080919635982F990F990F90939635E82B75
:1017800090919A35E917C9F08FE593E062E971E02D
:1017900046E150E00E94B33980E490E090937735C1
:1017A000809376351092500381E0809351038093AB
:1017B00052031092953510929435E0919735F0E0F0
:1017C000E858FA4C808182608083808181608083C8
:1017D00080818B7F80832B9A80CFF0E0EA5DFE4F83
:1017E0001491E0914C0380915503882309F082C045
:1017F000F0E0E45DFE4FE4911E1708F04DC1E0916A
:101800004C03882309F074C0F0E0E45DFE4FE491DE
:1018100080914E03E89F802D1124810F809397358E
:1018200090E0DC01A858BA4C2C9122FDE0C0982F22
:101830008827990F8B589C4F90939D3580939C35AA
:101840008C9184608C938C918D7F8C9380914C03D0
:101850008093903580914E0380939135109392350B
:101860002B9810929A351092993510929835809154
:10187000943590919535019661CF50919635452FCD
:10188000407C4E2B2091983542278431910578F089
:10189000E0919C35F0919D354193F0939D35E09317
:1018A0009C35509196358091943590919535609105
:1018B0009B352091993530E0260F311D240F311DC5
:1018C0002093993530939B35550F550F509396358E
:1018D000019634CFEE0FEE0FE093963580EC92E058
:1018E0002DCF20915403222309F0F7CE019626CF65
:1018F000E2E18ECFE2E180CF80919635982F990F6B
:10190000990F90939635807C8E2B909198358917FE
:1019100009F46AC08FE593E06CE671E046E150E0BF
:101920000E94B3398EE390E09093773580937635BB
:101930001092500381E0809351038093520381E021
:1019400090E0FCCE50919635452F407C4E2B209157
:101950009A3542278431910578F0E0919C35F091D9
:101960009D354193F0939D35E0939C35509196358C
:10197000809194359091953560919B352091983563
:1019800030E0260F311D240F311D20939835309300
:101990009B35550F550F509396350196CFCE4091FC
:1019A00096354E2B2091993542278431910568F068
:1019B000E0919C35F0919D354193F0939D35E093F6
:1019C0009C35809194359091953550919B3520911F
:1019D0009A3530E0250F311D240F311D20939A35A3
:1019E00030939B350196AACE81EC92E0A7CE309140
:1019F0004C0320914E038DB79EB70C970FB6F89409
:101A00009EBF0FBE8DBFADB7BEB711968FE593E0F9
:101A1000EDB7FEB79283818386E190E013969C93A5
:101A20008E93129788E591E015969C938E93149768
:101A300016963C93169717961C92179718962C9308
:101A4000189719961C9219971A961C931A971B9619
:101A50001C920E94C2398DE390E090937735809379
:101A600076351092500381E08093510380935203A6
:101A700010929535109294358091973590E02DB75E
:101A80003EB7245F3F4F0FB6F8943EBF0FBE2DBF49
:101A9000DC01A858BA4CCBCE20914C038DB79EB731
:101AA0000A970FB6F8949EBF0FBE8DBFADB7BEB7F5
:101AB00011968FE593E0EDB7FEB79283818386E1BF
:101AC00090E013969C938E93129782E491E0159682
:101AD0009C938E93149716961C93169717961C92A8
:101AE000179718962C93189719961C920E94C23932
:101AF0008CE390E090937735809376351092500385
:101B000081E0809351038093520310929535109297
:101B10009435809155032DB73EB7265F3F4F0FB6E2
:101B2000F8943EBF0FBE2DBF6ACE80919635982F98
:101B3000990F990F90939635807C8E2B90919935C3
:101B4000891759F08FE593E06FE771E046E150E0C7
:101B50000E94B3398FE390E0E7CE82EC92E0EECDC5
:101B60004091560350915703E2EEF2E025913491F3
:101B700060E07FEF2627372791EA692F632770E01F
:101B8000660F771F6A5D7D4FFB0165917491322F5F
:101B90002227262737279327E92FF0E0EE0FFF1F94
:101BA000EA5DFD4F65917491322F22272627372752
:101BB000EBEFE327F0E0EE0FFF1FEA5DFD4F6591CD
:101BC0007491322F222726273727B82FBB0FA0E08A
:101BD000AB58BC4F80E090E0722F6627ED91E32771
:101BE000F0E0EE0FFF1FEA5DFD4F259134912627AF
:101BF0003727019662E08030960771F730935703DC
:101C00002093560342175307C9F08FE593E065EA26
:101C100071E046E150E00E94B33986E490E0909391
:101C20007735809376351092500381E0809351038D
:101C300080935203109295351092943508951F9217
:101C40000F920FB60F920BB60F9211242F933F9362
:101C50004F935F936F937F938F939F93AF93BF93B4
:101C6000EF93FF9390B180915003882309F456C0FD
:101C7000892F807890919335891709F44FC080930C
:101C8000933590915503992309F46FC0882309F483
:101C900061C020B12F7080919635282B2093963506
:101CA00080919435909195358230910509F45FC00B
:101CB000009709F446C08130910509F46DC032E007
:101CC0008330930708F458C0A2E083309A0709F4E0
:101CD0009AC0B2E084309B0709F530E0809156034A
:101CE00090915703822B932B909357038093560325
:101CF0008091973535DFE0919735F0E0E858FA4C60
:101D000080818260808380818160808380818B7FFD
:101D100080832B9A1092953510929435FF91EF9114
:101D2000BF91AF919F918F917F916F915F914F91F3
:101D30003F912F910F900BBE0F900FBE0F901F90F1
:101D40001895213A59F781E090E09093953580936A
:101D50009435E4CF80B190E082959295907F98275A
:101D6000807F982780939635D9CFA2DCD7CF2B3FA1
:101D7000E9F0213A79F6D2CF30919735F32FFF0F62
:101D8000E0E0E80FF91FEE58FC4F20830196909396
:101D9000953580939435C2CF213A09F0BBCF82E0CC
:101DA00090E09093953580939435B8CF83E090E0A0
:101DB00090939535809394352091590320939735CE
:101DC000822F90E0FC01E858FA4C308132FD26C0A9
:101DD000982F8827990F8B589C4F90939D3580930F
:101DE0009C3580818460808380818D7F8083809119
:101DF0004C038093903580914E03809391352093CE
:101E000092352B988BCF109256032093570384E082
:101E100092E0909395358093943580CF50914C0308
:101E200040914E032DB73EB72C5030400FB6F8947A
:101E30003EBF0FBE2DBFEDB7FEB731962FE533E0A5
:101E4000ADB7BEB712963C932E93119726E130E0C2
:101E50003383228328E531E0358324835683178238
:101E600040871186938782870E94C23987E490E079
:101E700090937735809376351092500381E080936C
:101E800051038093520310929535109294352DB7DB
:101E90003EB7245F3F4F0FB6F8943EBF0FBE2DBF35
:101EA0003DCFF89490915003992341F48F7782B9F4
:101EB000459A079BFECF0799FECF459878940895E1
:101EC0008AE082B9459A079BFECF0799FECF4598D5
:101ED000E091570381EAE827F0E0EE0FFF1FEA5D8B
:101EE000FD4F859194913091560320E082279327EE
:101EF000909357038093560381E182B9459A079BDB
:101F0000FECF0799FECF45980895982F92959F7020
:101F100092B9459A079BFECF0799FECF4598482F67
:101F20004F70E0915703E827F0E0EE0FFF1FEA5DE6
:101F3000FD4F859194913091560320E0822793279D
:101F4000909357038093560342B9459A079BFECF5F
:101F50000799FECF459808952F923F924F925F9236
:101F60006F927F928F929F92AF92BF92CF92DF92A9
:101F7000EF92FF920F931F93DF93CF9300D00F92B6
:101F8000CDB7DEB78983692EA2EDCA2EA2E0DA2E84
:101F9000992422243324EE24FF2400E010E088C09A
:101FA0001070C801880F991F2801440C452C441C4F
:101FB00055085194482A592AF6010191852D9927EF
:101FC000820D931D800F911DAFEF4A225524D6013B
:101FD0001196AC906F010894C11CD11CA7014A0D49
:101FE000511D9C0120703170232F3327420F531F46
:101FF0003FEF232E312C2822392271802FEFE22E41
:10200000F12CE422F522872C8E24042510E0A22452
:10201000BB24F501E07CF070F595E795F595E79523
:10202000F595E795F595E7959801207C3070359505
:10203000279535952795E22BF32B882D829586954C
:102040008695837090E0E82BF92BE458FE4F84913D
:102050004A835B8326DF0F73107004581E4FF8010C
:1020600084911FDF809151034A815B81882309F0AD
:10207000A9C00894C11CD11C8201070D111D40701C
:102080005170452F5527040F151FF501EF73F070A0
:10209000E458FE4F849105DFE82DF0E0EF73F07017
:1020A000E458FE4F8491FDDE9394F92DFE3A41F001
:1020B000292D243009F074CF9981C92ED62C70CFE8
:1020C0001070C801880F991F5801AA0CAB2CAA1CCC
:1020D000BB08B194A82AB92AD6010C91200E311C54
:1020E0008B2D9927280E391E1196CC90EC0CF11CE3
:1020F000C10180709170892F9927E80EF91E0A2579
:1021000010E0C224DD24F601E07CF070F595E7953F
:10211000F595E795F595E795F595E795C801807CE8
:1021200090709595879595958795E82BF92BE458B0
:10213000FE4F8491B6DEF801EF73F070E458FE4F65
:102140008491AFDEF601EF73F070E458FE4F849196
:10215000A8DEF101E07CF070F695E795F695E7953D
:10216000C501807C90700024880F991F001C880F87
:10217000991F001C892F902DE82BF92BC701807C1B
:102180009070929582958F7089279F708927E82B90
:10219000F92BE458FE4F849184DEF101EF73F07067
:1021A000E458FE4F84917DDEF701EF73F070E45840
:1021B000FE4F849176DEF501EF73F070E458FE4F28
:1021C00084916FDE0F900F900F90CF91DF911F9150
:1021D0000F91FF90EF90DF90CF90BF90AF909F90C6
:1021E0008F907F906F905F904F903F902F900895C9
:1021F000CF93DF9380E060E00E949A1D81EB95E031
:1022000061E00E94271E8FE995E00E948639819542
:10221000880F865D62E00E949A1D8FE995E060E07C
:102220000E94271E4DB75EB7485050400FB6F89435
:102230005EBF0FBE4DBFEDB7FEB73196CFE5D3E021
:10224000ADB7BEB71296DC93CE93119786E190E0BE
:102250009383828383EB91E09583848380915E03F3
:10226000868317820E94C239FE0101900020E9F79F
:102270003197EC1BFD0B4DB75EB7485F5F4F0FB654
:10228000F8945EBF0FBE4DBF8E2F8195880F865D7F
:1022900063E00E949A1DCE0160E044E50E94A61D05
:1022A0002B980E94531D95E028E04FEF53ED60E31B
:1022B000415050406040E1F700C0000085B18227E6
:1022C00085B9915091F70E94571DDF91CF910895E4
:1022D000CF92DF92EF92FF920F931F93DF93CF93F2
:1022E00000D000D0CDB7DEB780E060E00E949A1D3C
:1022F0000E94D21E80E060E00E949A1D8BE895E06B
:1023000060E00E94271E80E062E00E949A1D88E73C
:1023100095E060E00E94271E80E063E00E949A1D25
:1023200082E795E060E00E94271E499BFECF4A9B12
:10233000FCCF4C9BFACF80E060E00E949A1D0E9487
:10234000D21E80E062E00E949A1D84E695E060E083
:102350000E94271E80E063E00E949A1D87E595E0B9
:1023600060E00E94271E80E064E00E949A1D8AE4DB
:1023700095E060E00E94271E8E010F5F1F4F84ECE6
:10238000E82E81E0F82EB4E0CB2ED12C16C080913F
:10239000C7358F3F29F08091C7358F5F8093C73550
:1023A00080E061E20E948B1D6091C73580E00E9451
:1023B0008B1D80E060E20E948B1D80E060E00E9447
:1023C0009A1D8FE395E060E00E94271E8091C7353B
:1023D0002DB73EB7285030400FB6F8943EBF0FBE21
:1023E0002DBFEDB7FEB73196ADB7BEB712961C93B1
:1023F0000E931197D382C282F582E482868317827C
:102400000E94C2392DB73EB7285F3F4F0FB6F894F0
:102410003EBF0FBE2DBFC80160E044E50E94A61D6F
:102420008FEF99E6A8E181509040A040E1F700C00D
:102430000000499B04C04A9B02C04C99FACF4A9BBA
:10244000A6CF49990BC08091C735813808F4A8CF31
:102450008091C73581508093C735A2CF4C99A0CFCA
:102460006091C73581E090E00E940A3C0F900F9088
:102470000F900F90CF91DF911F910F91FF90EF90F0
:10248000DF90CF9008951F930E94D21E80E060E0FD
:102490000E949A1D84E393E060E044E50E94A61D3B
:1024A00080E061E00E949A1D8EE995E36EE173E0A1
:1024B00043E00E94342A882309F48AC080914A03A9
:1024C000833029F1863019F182E0809358038EE938
:1024D00095E36BEB75E34FEB55E30E94562388239E
:1024E000D1F487EC94E060E00E94271E8FEF93E226
:1024F000A4EF81509040A040E1F700C0000010E040
:102500008EE995E30E943327812F1F91089581E082
:1025100080935803DCCF80E061E00E949A1D809197
:102520004A03853009F4BFC0863008F05FC08330AD
:1025300009F4A1C0843039F489EA94E060E00E9493
:10254000271E80914A0391E0863008F490E0909332
:1025500075354F998CC0992309F45CC081E0809354
:10256000540348E754E060E070E08EE995E30E9490
:102570004B268EE995E365E773E040E052E00E9468
:10258000C924E0917503F0E0EA58FC4F10821092E4
:102590008B0380E062E00E949A1D86E793E060E092
:1025A00044E50E94A61D80E064E00E949A1D8EE42E
:1025B00094E060E00E94271E80915403882379F5FF
:1025C00011E08EE995E30E943327812F1F91089532
:1025D0008EE995E36EE173E041E00E94342A88239E
:1025E00009F464C081E08093540371CF873009F40B
:1025F00052C0873008F447C0883009F0A4CF8CE57A
:1026000094E060E00E94271E81E080935503809152
:102610004A0399CF44E254E060E070E0A6CF8DE435
:1026200060E00E949A1D81E060E00E948B1D81E0C5
:1026300068E70E948B1D81E06EE70E948B1D81E0A0
:1026400069E70E948B1D81E069E70E948B1D81E094
:102650006EE70E948B1D81E068E70E948B1D11E0F0
:102660008EE995E30E943327812F1F91089581E021
:102670008093540370CF88EB94E060E00E94271EA3
:1026800080914A0360CF85E894E060E00E94271EB5
:1026900080914A0358CF81E794E060E00E94271EB2
:1026A00080914A0350CF89E994E0ABCF8CED94E060
:1026B00060E00E94271E1ACF1F931FB7F894E09185
:1026C0004C03F0E0EE0FFF1FE850F0418081809353
:1026D0004C030E948A0910924C0310924D031092F1
:1026E000510310924E0310924F0310925003109218
:1026F000530382E0809358031092590310925403BD
:10270000109255031092520310925D0310925C03D5
:102710001092773510927635109295351092943547
:1027200080E090E0FC01E858FA4C10820196883174
:102730009105C1F711B8469A28988FE798E3A1E070
:1027400081509040A040E1F700C0000080B18F7739
:1027500080935E0346988FE781B9289A8091640040
:10276000877F8093640083E48093800089E1809375
:1027700081000E94B0090E94DE1E0E94D21E1FBF6F
:102780001F910895FF920F931F93CF93DF938C01B6
:10279000F0905203C0917635D09177358DDF0E944D
:1027A000D21E80E060E00E949A1DFF2009F43FC025
:1027B0008FE196E061E00E94271E80E061E00E94C8
:1027C0009A1DC80160E044E50E94A61D8DB79EB722
:1027D00008970FB6F8949EBF0FBE8DBFEDB7FEB73A
:1027E00031960FE513E0ADB7BEB712961C930E936A
:1027F000119786E190E09383828387EC91E0958343
:102800008483D783C6830E94C2398DB79EB708964A
:102810000FB6F8949EBF0FBE8DBF80E065E00E94AA
:102820009A1DC80160E044E50E94A61DFFCF89E023
:1028300096E061E00E94271E80E061E00E949A1D00
:10284000C80160E044E50E94A61DF0CF1F93CF931E
:10285000DF930E94D21E80E060E00E949A1D84EF08
:1028600095E060E00E94271E4A9BFECF8FEF99E61D
:10287000A8E181509040A040E1F700C000008EE93F
:1028800095E36AEC71E041E00E94342A882331F537
:1028900062E00E949A1D85EE95E060E00E94271E8E
:1028A00080E063E00E949A1D88ED95E060E00E9460
:1028B000271E80E065E00E949A1D87EC95E060E0AD
:1028C0000E94271E499B04C04A9B02C04C99FACF24
:1028D0000E94D21EDF91CF911F9108958EE995E35A
:1028E00065E773E040E052E00E94C92497FD4DC0C7
:1028F0001092BA351092B93586E195E10E94C93837
:102900001FB7F8940E947338EC011FBF8EE995E35E
:102910000E94332780E062E00E949A1D209761F1B7
:10292000ADB7BEB718970FB6F894BEBF0FBEADBF18
:10293000EDB7FEB731968FE593E012969C938E9398
:10294000119786E190E09383828387EF91E09583EE
:102950008483D783C6830E94C2398DB79EB70896F9
:102960000FB6F8949EBF0FBE8DBF8FE593E060E079
:1029700044E50E94A61D9DCF8FE593E067EE71E0D0
:1029800046E150E00E94B339F0CF87ED91E0FADEE6
:10299000AFCF80E060E00E949A1D0E94D21E80E0CE
:1029A00060E00E949A1D8AE295E060E00E94271E86
:1029B00080E062E00E949A1D87E195E060E00E945D
:1029C000271E80E063E00E949A1D81E195E060E0AF
:1029D0000E94271E499BFECF4A9BFCCF4C9BFACFFF
:1029E00080E062E00E949A1D8DEF94E060E00E941A
:1029F000271E80E063E00E949A1D80EF94E060E073
:102A00000E94271E8FEF99E6A8E181509040A040D8
:102A1000E1F700C00000499B04C04A9B02C04C99EA
:102A2000FACF4A9B02C00C94D21E10CF2091B93528
:102A30003091BA3582E02030380759F0F901EB586F
:102A4000FC4F80812F5F3F4F3093BA352093B935CB
:102A500008958EE995E365E773E040E052E00E9457
:102A6000C92497FD0BC01092BA351092B93585B1C3
:102A700098E0892785B920E030E0E0CF87ED91E04C
:102A800081DEF1CF909155039923E1F4E82FF0E036
:102A9000E45DFE4FE491F0E0262F30E02E173F0773
:102AA000B4F4AF014F5F5F4F55954795E0FD14C0FB
:102AB00031972E173F0759F06417B0F0862F8F5FBC
:102AC000841B0895262F30E02131310514F080E079
:102AD0000895862F8F5F0895E42FF0E031972E1729
:102AE0003F0751F780E00895842F860F0895FF92E5
:102AF0000F931F938C01F22E0E945520882379F1A9
:102B0000C80165E773E30E94AD1F882391F1E9ECEA
:102B1000F3E3BF2DBB0FA0E0AB58BC4F81918D9369
:102B200085E3E537F807D1F7C80165E773E30E944D
:102B3000AD1F882311F1E5E7F3E3BF2DBB0FA0E044
:102B4000AF5DBA4F81918D9383E3E93CF807D1F7EC
:102B5000C8010E943D201F910F91FF90089588E0C9
:102B600092E010DEC80165E773E30E94AD1F882381
:102B700071F68CE192E006DECACF8CE192E002DED3
:102B8000DACF2F923F924F925F927F928F929F92D5
:102B9000AF92BF92CF92DF92EF92FF920F931F936B
:102BA000DF93CF93CDB7DEB760970FB6F894DEBF53
:102BB0000FBECDBF982E792E862E80915503882387
:102BC00009F4B7C004E210E062E1462E512C80E027
:102BD00090E020E0FF2458E1E52E46E1A42EB12C40
:102BE0003CE2C32E32E0D32E1801122F88589A4CA3
:102BF000DC018C9180FF35C080919035881661F1A1
:102C0000809190352DB73EB72A5030400FB6F894DA
:102C10003EBF0FBE2DBFEDB7FEB731962FE533E0B7
:102C2000ADB7BEB712963C932E931197B382A28292
:102C3000D582C48286821782808711860E94C2391B
:102C40004DB75EB7465F5F4F0FB6F8945EBF0FBEDD
:102C50004DBF8FE593E096DD5E2D583109F466C0D7
:102C6000F12E1F5F812F90E0821593050CF45AC05E
:102C7000BE2DB83109F43EC080915403882361F41D
:102C800066C0EE2DF0E0E858FA4C80818E7F80839C
:102C900080818B7F8083E394FE1498F7EDB7FEB7B5
:102CA00038970FB6F894FEBF0FBEEDBF31960FE513
:102CB00013E0ADB7BEB712961C930E93119786E141
:102CC00090E09383828381E492E09583848386827B
:102CD00017820E94C239EDB7FEB738960FB6F89446
:102CE000FEBF0FBEEDBF80E065E024D7C80160E005
:102CF00044E52CD760960FB6F894DEBF0FBECDBF6B
:102D0000CF91DF911F910F91FF90EF90DF90CF90C7
:102D1000BF90AF909F908F907F905F904F903F902B
:102D20002F900895183109F4A3CF60CFF12EE12E32
:102D300098CFE62FF0E0E45DFE4FE4914E2E55244F
:102D40008201000F111F01151105A1F240CFABD672
:102D5000D6D66B877C878D879E87FE1408F461C169
:102D6000482D50E05A8749871A01220C331CC101B3
:102D7000880F991F880F991F880F991F820D931D27
:102D80009C0140E050E029833A834B835C830E2D05
:102D9000F101E457FF4F859194919C0140E050E090
:102DA0002D833E834F8358871E2DAF2C42C08090C9
:102DB00091352091580330E040E050E069817A81FC
:102DC0008B819C810E940A396B017C018091BB350B
:102DD0009091BC35A091BD35B091BE35C80ED91EBD
:102DE000EA1EFB1E282D30E0429EC001439E900D3E
:102DF000529E900D1124AA2797FDA095BA2FC80EB8
:102E0000D91EEA1EFB1EC00ED11CE11CF11C2F8531
:102E10003889322F2227330F2B583C4F892D972D7D
:102E2000B701A6010E947520882371F10F5FA016DB
:102E300088F1402F50E0588B4F87FA01E858FA4C40
:102E4000808180FDF3CF80915503882309F0AFCFB7
:102E5000C090BB35D090BC35E090BD35F090BE350C
:102E6000C00ED11CE11CF11C2091580330E040E061
:102E700050E06D817E818F8198850E940A39C60E4F
:102E8000D71EE81EF91EC3CF86E592E07BDC0F5FFC
:102E9000A01678F6E12EFA2C80915503882309F0CC
:102EA0004FC0F101E457FF4F65917491A090BB357D
:102EB000B090BC35C090BD35D090BE35AE0CB11CC5
:102EC000C11CD11C80E090E02091580330E040E02C
:102ED00050E00E940A39A60EB71EC81ED91E0F2D3B
:102EE00010E00F5F1F4F0E191109222717FD2095C3
:102EF000322F892D972DB601A5010E94102288231B
:102F000059F487C0F801E858FA4C80818E7F80839D
:102F100080818B7F8083E394FE14D0F10E2D10E02E
:102F2000B801762F6627770F6B587C4F892D972D28
:102F30000E949E21882331F789E792E023DCE2CFCB
:102F40008091913590E0489E5001499EB00C589E6A
:102F5000B00C1124CC24B7FCC094DC2C8091BB3580
:102F60009091BC35A091BD35B091BE35A80EB91E6B
:102F7000CA1EDB1EAE0CB11CC11CD11CB101660FF8
:102F8000771F660F771F660F771F620D731D9ACF2D
:102F9000892D972D0E945122882309F43EC089E192
:102FA00080935D0384D5ABD5ADB7BEB71C970FB684
:102FB000F894BEBF0FBEADBFEDB7FEB731960FE5BB
:102FC00013E012961C930E93119726E130E03383A1
:102FD00022832AE932E03583248329853A853783A1
:102FE00026832B853C854D855E85621B730B840B88
:102FF000950B60877187828793870E94C2394DB78E
:103000005EB7445F5F4F0FB6F8945EBF0FBE4DBF13
:103010006ACE86E692E0B6DB7FCF88E892E0B2DB4C
:10302000BECF282D30E03A8729871901220C331CA6
:1030300033CF2F923F924F925F926F927F928F92F7
:103040009F92AF92BF92CF92DF92EF92FF920F9337
:103050001F93DF93CF93CDB7DEB7CD54D0400FB6DB
:10306000F894DEBF0FBECDBF18D526DBC1D89AD6E7
:1030700078948FE79AE1A6E081509040A040E1F774
:1030800000C0000010D58FE79AE1A6E08150904083
:10309000A040E1F700C00000499B05C04A9903C069
:1030A0004C9901C015D989E189831C821C8E1BA211
:1030B0001EA28E010F5F1F4FC80160E00E94B62A5A
:1030C000882309F49FC42FE5822E23E0922EEFD4AB
:1030D000499905C04A9903C04C9B01C05ADCC801FC
:1030E0000E949B05C8010E94AE07222433248091D0
:1030F0005203882309F078C0F894D0904C03C09014
:103100004E0310925103789480915303882309F061
:103110007EC080915103882351F74B9B04C00799CF
:103120006DC0F1010995499918C080911C039091D7
:103130001D03009771F3019790931D0380931C0367
:10314000C8010E94AE078FEF94E3ACE0815090403D
:10315000A040E1F700C00000DCCF4A9B49C04C9979
:10316000D8CF80914A03813009F4A3C2823009F498
:1031700038C2809168008860809368008091680000
:103180008460809368008091680084608093680008
:103190008091680081608093680010924C030ED685
:1031A00001D671D9882309F4A2CF8091540391E00C
:1031B000892790915503992309F4826082B9459A31
:1031C000A7E8B3E11197F1F700C000004598B2E419
:1031D000BA95F1F700C04298E1E0E0935303809183
:1031E0005203882309F488CF8FE593E0CBDA84CFAC
:1031F00080911C0390911D0301969ECF89B180FFA1
:1032000090CF86B180FF8DCF31998DCF8ACFED2CB5
:10321000FF242DB73EB7285030400FB6F8943EBF7C
:103220000FBE2DBFEDB7FEB73196ADB7BEB7129644
:103230009C928E92119786E1482E512C53824282A5
:10324000B6EC6B2EB2E07B2E75826482F782E6824A
:103250000E94C2392DB73EB7285F3F4F0FB6F89492
:103260003EBF0FBE2DBF88E164E064D4C40160E0BE
:1032700044E56CD4AC2CBB248DB79EB708970FB631
:10328000F8949EBF0FBE8DBFEDB7FEB73196ADB7B8
:10329000BEB712969C928E92119753824282ABECEB
:1032A0004A2EA2E05A2E55824482B782A6820E94FC
:1032B000C2392DB73EB7285F3F4F0FB6F8943EBFD7
:1032C0000FBE2DBF88E364E035D4C40160E044E55F
:1032D0003DD480914D038D1509F45CC160914D037F
:1032E000C8014FDCD0924D03C0924F0380E090E0C4
:1032F000FC01E858FA4C20812D7F2083019688310B
:103300009105B1F780915103882309F0F0CE8091A7
:103310005003882309F030C13D2D303598F7809156
:103320005503882309F05BC1F701E45DFE4F24914A
:1033300080915903821710F01092590386B14B996E
:1033400008C3881F8827881F8EAF2C9D902D1124BD
:1033500023969FAF2397A701440F551FCA01880FDB
:10336000991F880F991F880F991F840F951F289602
:103370008FAF289729969FAF299730E02A9DC001EB
:103380002B9D900D3A9D900D11242C01662457FC25
:103390006094762C27964CAE5DAE6EAE7FAE2797CE
:1033A0000E2CEF2C000CEE1CFF08000CEE1CFF1C7A
:1033B000AA0CBB1CA294B29460EFB622BA24A62237
:1033C000BA245E2C5A285FAE852D90E084589E4F1B
:1033D00044575F4FFA01659074902B967FAE6EAEA6
:1033E0002B972D2D2F7321962FAF2197E22FF0E0F1
:1033F000E458FE4F34912C963FAF2C97FC01F4918A
:103400002D96FFAF2D972296DFAE22972E96CFAE48
:103410002E972401F6B0F094FF1CFF24FF1C09F442
:1034200013C16EAC6F1461F080E464E083D3FF20BD
:1034300009F42FC182E494E060E009D421E02EAFCA
:1034400080915D03813009F42AC18091550388235E
:1034500009F4ABC0E0905903F8946E2C772458E738
:10346000852E55E3952E860C971CD4018C9181FDF9
:103470008FC08C9182FD8CC08C9184608C9381E094
:103480007894882309F441C080915503882309F07A
:10349000F7C02B966EAD7FAD2B9780915903A0900E
:1034A000BB35B090BC35C090BD35D090BE35A80EB0
:1034B000B11CC11CD11C27968CAD9DADAEADBFAD6E
:1034C0002797A80EB91ECA1EDB1E80E090E020914F
:1034D000580330E040E050E00E940A39A60EB71EC3
:1034E000C81ED91EE0D280917535882309F4B7C073
:1034F000C801B601A5012E2DFADAD9D2D4018C91DA
:1035000082608C938C918B7F8C938091590388235C
:1035100001F5FF2059F085B1B8E08B2785B980917E
:103520005D03823018F0815080935D0320915C032D
:10353000275E20935C032D3708F08CC030E080912B
:103540005A0390915B03821B930B909389008093A5
:10355000880080915503882379F122E3F22E06C07A
:103560008EE40E94850FFA9409F4BCC08091510347
:103570008823B1F34201BBCD80E464E0DBD288E470
:1035800094E060E064D3809151038823E1F3BACEE4
:1035900080E076CF80915503882309F4B3CE8091E3
:1035A0004F038C1509F09ACEADCEE09059032396C7
:1035B0003FAD2397E30E50CFB7E3EB2EF12C0AC0BB
:1035C0008FEF0E94510F0894E108F108E114F10413
:1035D00009F4EFC080915103882391F3CBCF22E10E
:1035E000A7CE80914B03815080934B03C80161E0CB
:1035F0000E943C2A80914B03882389F0FF249F2D51
:10360000ADE09A9FB00111246B587E4CC80141E097
:103610000E945A2AF39480914B03F81680F310927B
:103620001D0310921C03BED3C8010E949B05C80154
:103630000E94AE078FEF99E6A8E181509040A0402C
:10364000E1F700C0000053CDC80122966FAD22976C
:1036500098DAE7CE10925C0320E030E070CF93015F
:10366000322F2227330F2B583C4FC801B601A5013A
:103670003CD5882309F041CF87ED91E083D83DCF39
:1036800028969FAD289729968FAD2997692F782F77
:1036900004CF8CE394E060E0DAD22B9A1EAE109255
:1036A0005D0380E065E046D286E294E060E0CFD240
:1036B000CCCEF0904B03AF2DBDE0AB9FC0011124E9
:1036C0008B589E4C6EE173E04DE050E00E94B339A0
:1036D000F394F0924B03C8016EE173E041E00E9465
:1036E0005A2A9DCF9CE0F92E80915103882309F03E
:1036F00041CF0E94850FFA94B9F7EFEFFFEFF093F7
:103700005703E09356030E94600F0E94600F0E94CF
:10371000600F80915103882309F02CCF8EEF0E9417
:10372000850F80915103882309F024CF22968FAD15
:1037300022970E94850F80915103882309F01ACFA8
:103740002E968FAD2E970E94850F8091510388236E
:1037500009F010CF809159038F5F0E94850F8091EF
:103760005103882309F006CF82E00E94850FF09074
:1037700056038091570390915103992309F0FACE93
:103780000E94850F80915103882309F0F3CE8F2D7D
:103790000E94850FFF2408C08EE40E94850FF394D9
:1037A000FF2DF63109F4F1C0809151038823A1F374
:1037B000E1CE80915803823009F4E4C0F2E0FF2E9C
:1037C000E090590380915103882309F0D3CE85ED11
:1037D0000E94510F80915103882309F0CBCE8AEAD1
:1037E0000E94510F80915103882309F0C3CE86E9CE
:1037F0000E94510F80915103882309F0BBCE2C9673
:103800008FAD2C970E94510F80915103882309F0AE
:10381000B1CEE0915903F0E0E458FE4F84910E944C
:10382000510F80915103882309F0A4CE2D968FADBE
:103830002D970E94510F80915103882309F09ACE51
:10384000EF2DF0E0E458FE4F84910E94510F8091DB
:103850005103882309F08ECE2196EFAD2197EE25F6
:103860002FADE227EF25EF73F0E0E458FE4F84918F
:103870000E94510F80915103882309F07BCE8EED79
:103880000E94510F80915103882309F073CE8AEA78
:103890000E94510FEAE0FE2E80915103882309F027
:1038A00069CE8FEF0E94510FFA94B1F780915103C6
:1038B000882309F05FCE85ED0E94510F809151035E
:1038C000882309F057CE8AEA0E94510F8091510354
:1038D000882309F04FCE8DEA0E94510F8091510349
:1038E000882309F047CEE0915903F0E0E458FE4FF9
:1038F00084910E94510FC301982F8827990F8B58EC
:103900009C4F0E94AC0F80915103882309F032CE66
:103910008EED0E94510F80915103882309F02ACE29
:103920008AEA0E94510F80915103882309F022CE28
:103930008FEF0E94510F22968FAD2297609159030D
:10394000A1D8809359034B9B65CD2296DFAC22977B
:1039500042014598429A10925303C8016D2D11D926
:103960008FE79AE1A6E081509040A040E1F700C0C7
:1039700000000E945C13C8010E949B05C8010E94C0
:10398000AE07B5CBA2E2FA2E1BCFFF2480915103E4
:10399000882309F0EFCD0E94850FF3942F2D2C3052
:1039A000A9F78FEF9FEF90935703809356030E94E0
:1039B000600F0E94600F0E94600F80915103882366
:1039C00009F0D8CD8BEF0E94850F6301DC2CCC244D
:1039D000DD0CA5E7B3E0CA0EDB1EEE24FF240AC00F
:1039E0000E94850F0894E11CF11CF0E0EF16F2E054
:1039F000FF06B9F1F60181916F019091510399236E
:103A000079F3B8CDADB7BEB71A970FB6F894BEBF6D
:103A10000FBEADBFEDB7FEB731969FE5892E93E09F
:103A2000992E12969C928E92119786E190E0938344
:103A3000828382EB92E095838483898186831782D7
:103A40008B81808711860E94C239EDB7FEB73A9606
:103A50000FB6F894FEBF0FBEEDBFC4010E94C213A3
:103A600036CBF090560380915703909151039923E0
:103A700009F080CD0E94850F80915103882309F0C1
:103A800079CD8F2D0E94850F56CF81E090E00C9468
:103A9000770980E090E00C94770914BC83E085BD41
:103AA00081E085BB089581E080936E0008951092B7
:103AB0006E0008951F920F920FB60F9211248F93EC
:103AC0009F93AF93BF938091C3359091C435A091DC
:103AD000C535B091C6350196A11DB11D8093C33582
:103AE0009093C435A093C535B093C635BF91AF91BF
:103AF0009F918F910F900FBE0F901F9018952FB729
:103B0000F8946091C3357091C4358091C53590911A
:103B1000C6352FBF089590E59CBD1DBC882341F09C
:103B20005E9A2A986EBD0DB407FEFDCF2A9A0895BD
:103B30005E98F7CF1F93162F682F606880E0EBDF49
:103B4000612F606480E0E7DF1F910895AF92BF921C
:103B5000CF92DF92EF92FF920F931F93CF93DF9359
:103B6000D62EC42EE82EF92EBB248FE7A82EF701FF
:103B700001917F01002359F4DF91CF911F910F91A3
:103B8000FF90EF90DF90CF90BF90AF900895BC145E
:103B900098F70D3609F183E0089F80011124E801B0
:103BA000CB52DA4F09521A4FFE016491660FD110C1
:103BB0006A2581E0B0DFB394C017D10749F4BC1483
:103BC000B0F6DD20C1F16FE781E0A5DFB394CFCF80
:103BD0002196BC1460F6E8CFDD2079F163E481E042
:103BE0009ADFB394BC1408F0C2CFDD2051F16BE72B
:103BF00081E091DFB394BC1408F0B9CFDD2029F146
:103C000067E681E088DFB394BC1408F0B0CFDD2014
:103C1000D1F06BE781E07FDFB394BC1408F0A7CF4D
:103C2000DD2069F067E481E076DFB394BC1408F02E
:103C30009ECFDD2041F660E0C7CF6CE3D0CF68E3D4
:103C4000F2CF64E0D5CF64E0E5CF68E1DACFCF9280
:103C5000DF92EF92FF920F931F93CF93DF93D62EB5
:103C60008C010F5F1F4F2FE7C22EF8013197E491AF
:103C7000EE2331F1ED3679F183E0E89FF001112474
:103C8000EF01CB52DA4F98EDE92E95E0F92EEE0ECA
:103C9000FF1EFE016491660FD1106C2581E03BDFB1
:103CA0002196CE15DF05A9F7DD2099F06FE781E0B9
:103CB00032DF0F5F1F4FF8013197E491EE23D1F609
:103CC000DF91CF911F910F91FF90EF90DF90CF90F8
:103CD000089560E0ECCFDD2089F081E063E41BDF34
:103CE00081E06BE718DF81E067E615DF81E06BE7D5
:103CF00012DF81E067E40FDF6FE7D9CF81E06CE38B
:103D00000ADF81E064E007DF81E068E104DF81E051
:103D100064E001DF81E068E3FEDE60E0C8CFEF929F
:103D2000FF920F931F93CF93DF93E82EF92EF701A5
:103D300001917F010023E1F00D3609F183E0089F36
:103D400080011124E801CB52DA4F08521A4FFE01CC
:103D50006491606481E0DFDE2196C017D107B9F776
:103D600081E060E4D8DEF70101917F01002321F7B3
:103D7000DF91CF911F910F91FF90EF90089581E017
:103D80006EE5C9DE81E062E4C6DE81E06CE4C3DE9C
:103D900081E062E4C0DE81E06CE5BDDE81E060E4EC
:103DA000BADEC5CFCF93DF93C8EFD1E081E060E00A
:103DB000B2DE2197D9F7DF91CF9108958FEB8093F1
:103DC000C73584E18093C83584E08093C935569A1D
:103DD000279A259A229A209A2A98289A8FE798E378
:103DE000A1E081509040A040E1F700C00000289879
:103DF0008FE798E3A1E081509040A040E1F700C038
:103E00000000289A8FE798E3A1E081509040A040FD
:103E1000E1F700C0000080E090E00E94023C813F9A
:103E2000E1F080E090E061EF0E940A3C6091C735CC
:103E300081E090E00E940A3C80E061E26CDE6091EB
:103E4000C73580E068DE6091C83580E064DE80E0E0
:103E500060E261DE80E06CE05ECE81E090E00E9496
:103E6000023C8093C735E8CFFC014181842F90E06C
:103E70009C013595279520652CBD40FD06C081E04D
:103E8000463019F08DBD2C98089580E08DBD2C989A
:103E90000895BF92CF92DF92EF92FF920F931F93FC
:103EA000CF93DF938C016B017A0129DEEB01BB24F8
:103EB000BA94BEBC0DB407FEFDCF8EB5F801828367
:103EC0008F3FB1F41CDE6C1B7D0B81E06D327807F7
:103ED00080F381E1F80180832C9A80E0DF91CF911B
:103EE0001F910F91FF90EF90DF90CF90BF900895BA
:103EF0008E3F19F08FE08083EFCFE114F104F1F0F1
:103F00000894E108F1088FEF8EBDE114F10471F01F
:103F1000F60180E090E03FEF0DB407FEFDCF2EB537
:103F200021933EBD01968E159F05B0F30DB407FE9B
:103F3000FDCF8EB5F601EE0DFF1D80838FEF8EBD98
:103F40000DB407FEFDCF8EB58FEF8EBD0DB407FE0D
:103F5000FDCF8EB52C9A81E0C1CF0F931F93CF93E5
:103F6000DF93EC018B0180DFCE01B80140E052E02D
:103F700090DFDF91CF911F910F910895FF920F93E2
:103F80001F93CF93DF93EB01BADD8B01FF24FA94EB
:103F9000FEBC0DB407FEFDCF8EB58F3F69F0AFDDDF
:103FA000601B710B6C177D0798F380E0DF91CF9158
:103FB0001F910F91FF90089581E0DF91CF911F91A4
:103FC0000F91FF900895DF92EF92FF920F931F934E
:103FD000CF93DF93EC01D62E79018A0145DFCE0124
:103FE0006CE271E0CBDF8D2D80648EBD0DB407FED9
:103FF000FDCF28E130E0D801C701022E04C0B695FC
:10400000A795979587950A94D2F78EBD0DB407FEB4
:10401000FDCF285030408FEF283F380761F7DD2073
:10402000E9F08D2D883001F587E88EBD0DB407FECF
:10403000FDCF8D2D8C30D1F02FEF9FEF9EBD0DB4B5
:1040400007FEFDCF8EB58A8387FD0AC0DF91CF9131
:104050001F910F91FF90EF90DF90089585E9E5CFD4
:104060002223A1F32150EACF8FEFDFCF8FEF8EBD58
:104070000DB407FEFDCF8EB5DFCFCF93DF93EC01FC
:10408000F3DECE016CE020E030E0A9019CDF882364
:1040900039F083E088832C9A80E0DF91CF910895F6
:1040A0002C9A81E0DF91CF910895CF93DF93EC01BB
:1040B0009A01AB018B81833039F069E0220F331F05
:1040C000441F551F6A95D1F7CE0162E17CDF88233A
:1040D00039F085E088832C9A80E0DF91CF910895B4
:1040E0002C9A81E0DF91CF910895CF92DF92EF92E9
:1040F000FF920F931F93CF93DF93EC017A018B0113
:1041000069018B81833039F0A9E0EE0CFF1C001FA0
:10411000111FAA95D1F7CE0161E1A801970153DFE4
:10412000882369F084E088832C9A80E0DF91CF9126
:104130001F910F91FF90EF90DF90CF900895CE01E7
:10414000B60140E052E0A5DEF1CF8F929F92BF9280
:10415000CF92DF92EF92FF920F931F93DF93CF9353
:104160000F92CDB7DEB74C01B62EFC011382108240
:10417000C6DC8B01249A2C9A2698259A279A249A91
:104180002C9A85E0F401818382E58CBD1DBC8AE018
:104190009FEF9EBD0DB407FEFDCF8150D1F7C40146
:1041A00060E020E030E0A9010EDF782FF401828387
:1041B0008130C9F0A4DC601B710BF7E0613D7F0723
:1041C00070F381E0F40180832C9A80E00F90CF910E
:1041D000DF911F910F91FF90EF90DF90CF90BF90F4
:1041E0009F908F900895C40168E02AEA31E040E092
:1041F00050E07983E8DE798182FF1FC0F401738388
:10420000CC24DD247601C40167E320E030E0A9017D
:10421000DADEC40169E2A7019601D5DEF4018283EA
:104220008823D9F06CDC601B710BF7E0613D7F07E0
:1042300050F38AE0F4018083C7CF84E02FEF2EBDD6
:104240000DB407FEFDCF9EB5F40192838150B9F7FE
:104250009A3A79F082E08083B7CF83818230B1F0DF
:104260002C9AFB2DF73070F088E1F401808380E018
:10427000ADCF82E0F4018383C12CD12CE12CB0E4DA
:10428000FB2EC1CFF401B18281E0A0CFC4016AE36B
:1042900020E030E0A90197DE882321F088E0F401D6
:1042A000808392CF8FEF8EBD0DB407FEFDCF8EB50C
:1042B000807C803C19F483E0F401838383E09FEFEA
:1042C0009EBD0DB407FEFDCF2EB58150C9F7C8CFF6
:1042D000FC016EBDA42FB52F80E090E00DB407FE69
:1042E000FDCF2C912EBD0DB407FEFDCF11962C9164
:1042F00011972EBD0296129622E08030920771F738
:104300000DB407FEFDCF8FEF8EBD0DB407FEFDCFC0
:104310008FEF8EBD0DB407FEFDCF8FEF8EBD0DB4B8
:1043200007FEFDCF8EB582838F71853029F083E142
:1043300080832C9A80E0089581E008950F931F9365
:10434000CF93DF93EC018B018FDDCE0168E572E046
:1043500015DE882349F485E188832C9A80E0DF917B
:10436000CF911F910F910895CE016CEFA801B0DF9E
:10437000882389F32C9A81E0DF91CF911F910F91CF
:104380000895CF92DF92EF92FF920F931F93CF93F6
:10439000DF93EC017A018B0169018B81833039F065
:1043A00089E0EE0CFF1C001F111F8A95D1F7CE018A
:1043B00068E1A801970107DE882369F086E0888319
:1043C0002C9A80E0DF91CF911F910F91FF90EF9099
:1043D000DF90CF900895CE016EEFA60179DF88239C
:1043E00079F3CE0168E572E0C9DD882319F487E12D
:1043F0008883E6CFCE016DE020E030E0A901E3DD67
:10440000882319F086E18883DBCF8FEF8EBD0DB452
:1044100007FEFDCF8EB58823A9F72C9A81E0D2CF75
:10442000AF92BF92CF92DF92EF92FF920F931F93C2
:10443000CF93DF93EC015A016B017801890167E3A7
:1044400020E030E0A901BFDDCE0167E1A8019701BE
:10445000BADD882379F089E088832C9A80E0DF91A7
:10446000CF911F910F91FF90EF90DF90CF90BF9071
:10447000AF9008958B81833039F099E0AA0CBB1C72
:10448000CC1CDD1C9A95D1F7CE0169E1A6019501FE
:104490009ADD882319F087E08883DFCF2C9A81E0AA
:1044A000DECFCF93DF93EC01DFDCCE0168E572E075
:1044B00065DD882359F08DEF8EBD0DB407FEFDCF6D
:1044C000CE0168E572E05ADD882339F482E1888301
:1044D0002C9A80E0DF91CF9108952C9A81E0DF91B2
:1044E000CF910895CF93DF93EC019C012C5F3F4F58
:1044F000898D9A8D41E050E060E070E00E94042DCB
:104500008823D9F08D899E89AF89B88D0097A10540
:10451000B10579F48C819D81AE81BF818D8B9E8B9D
:10452000AF8BB88F89818068898381E0DF91CF91DB
:10453000089581E0DF91CF91089580E0DF91CF91E0
:104540000895CF92DF92EF92FF921F93CF93DF9364
:10455000EC0189899A89AB89BC89803E2FEF92074B
:104560002FE1A20720E0B20748F080E0DF91CF9171
:104570001F91FF90EF90DF90CF900895CE01B2DFB2
:10458000882399F30E94D82A882379F3E98DFA8D3C
:10459000CC80DD80EE80FF808EEF9FEFAFEFBFEF2E
:1045A000C80ED91EEA1EFB1E058404C0CC0CDD1CFF
:1045B000EE1CFF1C0A94D2F786859785A089B189E5
:1045C000C80ED91EEA1EFB1E81E08093D637C0922A
:1045D000D035D092D135E092D235F092D33580E00B
:1045E00092E0E4EDF5E3DF019C011D9221503040A3
:1045F000E1F7E98DFA8D84818230C0F011E006C0C8
:104600001F5FE98DFA8D8481181780F4B701A60128
:10461000410F511D611D711D8091D4379091D53787
:1046200024ED35E3AEDE882359F79FCF20E032E05A
:1046300040E050E0058404C0220F331F441F551F83
:104640000A94D2F789899A89AB89BC89820F931F12
:10465000A41FB51F898B9A8BAB8BBC8B81E086CF57
:10466000CF93DF93EC018C859D85AE85BF8541E0BE
:10467000662309F440E0BC01CD01DAD7882381F03C
:10468000288930E0220F331F22953295307F322760
:10469000207F32272C523A4CC901DF91CF910895E7
:1046A00020E030E0C901DF91CF9108956F927F92B1
:1046B0008F929F92AF92BF92CF92DF92EF92FF9232
:1046C0000F931F93DF93CF9300D000D0CDB7DEB709
:1046D0006C014B013A01DC015596ED90FD900D9176
:1046E0001C915897E114F10401051105F1F05E01E8
:1046F0000894A11CB11C10C0D801C7010196A11DCE
:10470000B11D29813A814B815C8182179307A407EF
:10471000B507F9F47C018D01F601818D928DB80108
:10472000A7019501CAD7882339F780E00F900F9031
:104730000F900F90CF91DF911F910F91FF90EF900D
:10474000DF90CF90BF90AF909F908F907F906F90B1
:104750000895D60159966D917C915A97FB018789EE
:10476000803109F44CC0283F8FEF38078FEF48079E
:104770008FE05807D0F2F60185899689A789B08D18
:104780000297A109B109FB01058404C0880F991F94
:10479000AA1FBB1F0A94D2F7268537854089518905
:1047A000820F931FA41FB51FF40180839183A283FE
:1047B000B383FB0186859785A089B1890197A109FB
:1047C000B1092481820F911DA11DB11DA80197017E
:1047D0002250304040405040058404C0220F331F17
:1047E000441F551F0A94D2F7820F931FA41FB51FB1
:1047F000F30180839183A283B38381E097CF283F25
:10480000FFEF3F07F0E04F07F0E05F0708F0B3CF9E
:104810008CCFE82FF92F80E090E03EE209C0DB0169
:10482000A90FB11D2C939F5F8F5F31968B3061F084
:1048300020812032C9F3883091F7DB01A90FB11D27
:104840003C939F5F2081EBCF690F711DFB011082AC
:1048500008951F93FB012BE030E231932150E9F7DB
:10486000A82FB92F30E017E09A2F8B2F2D912223FC
:1048700051F4FA019083818381E0FB0190819032B1
:1048800079F01F9108952F32A1F32E3261F082E565
:1048900097E0FC010196E491EE2351F02E17C9F741
:1048A00080E01F9108951A30D9F338E01AE0DCCF88
:1048B0001317B0F32132A0F32F3790F7FB01E30F6A
:1048C000F11D822F81568A3108F4205220833F5FE8
:1048D000CBCF0F931F93CF93DF93EC018B018B8191
:1048E000882331F4FB018789803141F08032F1F176
:1048F00080E0DF91CF911F910F91089582E08B832B
:104900001D8A1E8A1F8A188E808D918DA0E0B0E0CE
:10491000880F991FAA1FBB1F880F991FAA1FBB1FB3
:10492000880F991FAA1FBB1F880F991FAA1FBB1FA3
:10493000880F991FAA1FBB1F898B9A8BAB8BBC8BCF
:104940001A8F098F81E089831C821D821E821F823B
:10495000188619861A861B861C861D861E861F864B
:10496000188ADF91CF911F910F91089583E08B8377
:10497000F801428D538D648D758D4D8B5E8B6F8BE1
:10498000788F9E012F5E3F4FC80124D78823C1F640
:10499000AFCF2F923F924F925F926F927F928F9202
:1049A0009F92AF92BF92CF92DF92EF92FF920F93BE
:1049B0001F93CF93DF938C01362FE72F2A01DC0161
:1049C00013962C911397222329F011968C9111970D
:1049D00080FD16C02FEF3FEFC901DF91CF911F91EE
:1049E0000F91FF90EF90DF90CF90BF90AF909F908E
:1049F0008F907F906F905F904F903F902F90089591
:104A0000E801C988DA88EB88FC88488559856A8579
:104A10007B854201AA24BB24D701C601841B950BC8
:104A2000A60BB70B88169906AA06BB0608F093C01A
:104A30004114510409F4BEC0832E9E2E6201A4E0ED
:104A40002A2E312C200E311E612CF2E07F2E60C008
:104A5000FF2009F07AC0411551056105710509F083
:104A6000ABC0E8018D899E89AF89B88D8C839D8309
:104A7000AE83BF8346855785608971894F0D511D6F
:104A8000611D711D0297A109B109058404C0880F39
:104A9000991FAA1FBB1F0A94D2F7480F591F6A1FFC
:104AA0007B1FE301CA19DB09CC16DD0608F4E60119
:104AB000E2E0C030DE0709F452C0CB01BA0140E0A9
:104AC000B7D5882309F486CF95012C523A4CC401FE
:104AD000B901AE010E949C39AE0160E070E0F801BE
:104AE00080859185A285B385480F591F6A1F7B1F5A
:104AF000D80118964D935D936D937C931B97CC1AB8
:104B0000DD0A09F457C08C0E9D1E13962C91139745
:104B1000EFEFAE2EE1E0BE2EA422B5222230B9F195
:104B2000D8015996ED91FC915A97DB01CA0129E011
:104B3000B695A795979587952A95D1F7F480FA941D
:104B4000F822A114B10409F483CFE8018C819D817E
:104B5000AE81BF818FCF2601441A550A69CF80915B
:104B6000D0359091D135A091D235B091D335481739
:104B700059076A077B0709F4A0CF8091D437909139
:104B8000D5379401B2DA882309F0A6CF23CF39E0D4
:104B900076956795579547953A95D1F7E801E98D50
:104BA000FA8D828D938DA48DB58D480F591F6A1F84
:104BB0007B1F77CF920110CFD80114964D915D9154
:104BC0006D917C911797CF01910177D5882309F4D6
:104BD00001CFE801E98DFA8D8C819D81AE81BF8185
:104BE00049CFDF93CF930F92CDB7DEB7BE016F5F92
:104BF0007F4F41E050E0CDDE8130910539F02FEF5D
:104C00003FEFC9010F90CF91DF910895298130E0E6
:104C1000C9010F90CF91DF910895EF92FF920F930A
:104C20001F93CF93DF93EC018B81823050F420E00F
:104C300030E0C901DF91CF911F910F91FF90EF906C
:104C40000895E884F9840A851B85CE01CADF97FDA3
:104C5000EECF88859985AA85BB854F96A11DB11D8C
:104C600088879987AA87BB87D801C70115E0B695C1
:104C7000A795979587951A95D1F78F70282F30E0D3
:104C8000220F331F22953295307F3227207F322723
:104C90002C523A4CCECF8F929F92AF92BF92CF922E
:104CA000DF92EF92FF920F931F93CF93DF93EC016C
:104CB0004A015B012B81222309F465C089899A8905
:104CC000AB89BC8984179507A607B70708F45BC0B2
:104CD000223009F452C081149104A104B10409F4F2
:104CE0006AC0488559856A857B85E98DFA8D258559
:104CF00030E0275F3F4FDB01CA010197A109B109ED
:104D0000022E04C0B695A795979587950A94D2F779
:104D1000850174010894E108F1080109110904C032
:104D200016950795F794E7942A95D2F7E816F906B1
:104D30000A071B07B0F58D899E89AF89B88D8C83D2
:104D40009D83AE83BF8384E0C82ED12CCC0EDD1EA4
:104D50000FC04C815D816E817F81898D9A8D960116
:104D6000ACD40894E108F10801091109882359F02D
:104D7000E114F1040105110561F788869986AA8678
:104D8000BB8681E001C080E0DF91CF911F910F9140
:104D9000FF90EF90DF90CF90BF90AF909F908F905B
:104DA0000895411551056105710529F2E81AF90ABE
:104DB0000A0B1B0BC8CF1C821D821E821F82188605
:104DC00019861A861B8681E0DFCF0F931F93CF933E
:104DD000DF93EC018B81882349F0898187FD0EC028
:104DE000E7D3DF91CF911F910F91089581E08883E0
:104DF00080E0DF91CF911F910F910895CE0161E086
:104E00002FDC8C01009791F3FC018081853E71F3CA
:104E10008B818230F8F08D899E89AF89B88DF80139
:104E2000938F828FB58BA48BE091CC35F091CD35EB
:104E3000309759F0B8016A5E7F4FC80148960995CE
:104E4000F801808D918D938B828B89818F778983F7
:104E5000AFD3C7CF89899A89AB89BC89848F958F55
:104E6000A68FB78FD8CFCF93DF93EC01AEDF1B8235
:104E7000DF91CF9108956F927F928F929F92AF9220
:104E8000BF92CF92DF92EF92FF920F931F93DF9327
:104E9000CF9300D000D0CDB7DEB77C015A016B01B3
:104EA000DC0113968C9113978130A1F080E00F9074
:104EB0000F900F900F90CF91DF911F910F91FF9066
:104EC000EF90DF90CF90BF90AF909F908F907F90AA
:104ED0006F90089511968C91119781FFE7CFF7019C
:104EE00081899289A389B48984179507A607B70792
:104EF000E8F20097A105B10529F1F70160847184FA
:104F000082849384C701B601A501C5DE882371F2AE
:104F1000A114B104C104D104B9F4D70155964D913F
:104F20005D916D917C91589759968D919C915A976E
:104F3000A3D6882309F4BACFF701158A168A178AEF
:104F4000108E40C081E0B3CFD70114964D915D9192
:104F50006D917C91179759968D919C915A979E01CE
:104F60002F5F3F4FAAD3882309F4A0CFD7015996CA
:104F7000ED91FC915A9749815A816B817C81878997
:104F80008031C9F1483F8FEF58078FEF68078FE0F6
:104F90007807C0F4CF0170D6882309F487CFD701F2
:104FA00014964D915D916D917C91179759968D91C5
:104FB0009C915A970FEF1FEF2FEF3FE086D4882385
:104FC00009F474CFF701A18AB28AC38AD48A818195
:104FD00080688183C701F9DE882309F467CFB601B1
:104FE000A5016A147B048C049D0410F4B401A30190
:104FF000C70151DE5CCF483FBFEF5B07B0E06B07F6
:10500000B0E07B07F8F6C6CF1F93CF93DF93EC0198
:10501000142FE62FF0E0EE0FFF1FE295F295F07FE0
:10502000FE27E07FFE27DF01AC52BA4C1B968C9125
:105030001B97817149F0842F827131F01B8280E0CF
:10504000DF91CF911F9108958091D0359091D13506
:10505000A091D235B091D3358C879D87AE87BF871D
:10506000688BEC52FA4C84899589A0E0B0E0DC01B1
:10507000992788278D8B9E8BAF8BB88F428D538D50
:1050800060E070E0482B592B6A2B7B2B4D8B5E8B9D
:105090006F8B788F838590E0887190700097F1F422
:1050A000848D958DA68DB78D898B9A8BAB8BBC8BA0
:1050B00081E08B83812F8F7089831C821D821E82E9
:1050C0001F82188619861A861B8614FD17C015FDC7
:1050D0001EC081E0DF91CF911F910895803191052D
:1050E00009F0ACCF9E012F5E3F4F898D9A8D72D310
:1050F000882309F4A3CF84E08B83DCCFCE0140E08A
:1051000050E0BA01B8DE882311F780E099CF4989D1
:105110005A896B897C89CE01BEDD92CF8F929F9296
:10512000AF92BF92CF92DF92EF92FF920F931F93B5
:10513000CF93DF935C01EB01C42E952E822E898DD7
:105140009A8DD5015A969C938E935997CB0140E046
:1051500050E0BA01A0DDDD24E884F9840A851B85CE
:1051600089899A89AB89BC89E816F9060A071B0761
:1051700008F040C0CE0151DDFC01009709F476C073
:10518000D801C70115E0B695A795979587951A950B
:10519000D1F7182F1F708081882391F0853E81F010
:1051A0008C2D992DBF014BE050E00E948F39009764
:1051B00099F687FC5BC0C501612F482D25DF57C0DC
:1051C000DD20A9F42091D0353091D1354091D235F0
:1051D0005091D335D5011C962D933D934D935C93FF
:1051E0001F9750961C9350978081DD24D394882379
:1051F00009F0B2CF86FE3AC081FE38C0DD2009F04A
:1052000043C08B81823091F1CE019BD9882371F10B
:10521000C4EDD5E310E07E01EC2FFF2D80E2DF012D
:105220001D928A95E9F7DE018C2D992DFC018BE00A
:1052300001900D928150E1F7E091CC35F091CD35A0
:10524000309761F1BE01625F7F4FCE0140960995B4
:10525000888999892E853F859B8B8A8B998F888F2A
:105260003F8B2E8BA5D1882309F0A5CF80E0DF915D
:10527000CF911F910F91FF90EF90DF90CF90BF9053
:10528000AF909F908F900895F5011089C50161E05E
:10529000E7D9EC01009709F0BECFE8CF81E298E2B0
:1052A000998B888B80E098E09F878E8720E038E09C
:1052B00081E298E2D1CF2F923F924F925F926F920C
:1052C0007F928F929F92AF92BF92CF92DF92EF9296
:1052D000FF920F931F93DF93CF93CDB7DEB7C454E4
:1052E000D0400FB6F894DEBF0FBECDBF2C013B01FE
:1052F0008E010E5B1F4FD80111965C934E9325963D
:105300002FAF25971C861F861FA21AA6611571054F
:1053100009F45FC0FC018381882309F05AC0CA01E7
:10532000DA012C912F3209F470C073013CE0832E16
:10533000912C8C0E9D1E64015E010894A11CB11C71
:1053400027E2222E312C2C0E3D1EB501A80181DA58
:10535000882369F1D801ED91FC91119780818F32FA
:1053600041F43196D8011196FC93EE9381918F32DE
:10537000C9F3882309F46FC0C601B701A50121E074
:10538000CDDE8823A1F0E614F70421F0C7011DDD6E
:10539000F7011382C814D904C9F076016401D80159
:1053A0008D919C91B501A80154DA882399F600E00B
:1053B0008AA5882321F0CE01879607DD1AA68F855E
:1053C000882341F0CE010C9600DD04C06101740118
:1053D000E6CF00E0802FCC5BDF4F0FB6F894DEBF46
:1053E0000FBECDBFCF91DF911F910F91FF90EF9036
:1053F000DF90CF90BF90AF909F908F907F906F90F5
:105400005F904F903F902F9008959A012F5F3F4FEC
:10541000C901F80131832083D9014C912F5F3F4F9F
:105420004F32B1F3F30123812250223008F47DCFB3
:1054300087E2E82EF12CEC0EFD1ED30159966D91FA
:105440007C915A97C70145DA882309F4B0CFF80157
:10545000808191816BCFC201B701A50125962FAD47
:1054600025975CDE082FA4CFFB01242F6091CA355D
:105470007091CB35AF011FCF0F931F93CF93DF9365
:10548000EC01662399F08C010E5D1F4F1093CB3514
:105490000093CA35C801E7DCBE016C5F7F4FC801CD
:1054A00018DADF91CF911F910F9108958C010E5D55
:1054B0001F4FF0CFDF92EF92FF920F931F93DF9376
:1054C000CF93CDB7DEB76C970FB6F894DEBF0FBEA3
:1054D000CDBFFB01D42E19821C8220812F3229F1ED
:1054E00022E2E22EF12CE80EF91E8E010F5F1F4F13
:1054F000C801B701AF0121E0DEDE8823F1F08C8125
:10550000823070F1D701F8018BE101900D9281504A
:10551000E1F7DD2021F0F092CB35E092CA3521E0B1
:10552000C8012C8FA0DC2C8D0CC021812223C1F658
:10553000642FA2DF282F8C8102C08C8120E0882379
:1055400089F4822F6C960FB6F894DEBF0FBECDBFE4
:10555000CF91DF911F910F91FF90EF90DF90089511
:1055600020E0EDCF8E010F5F1F4FDACF0F931F9317
:10557000CF93DF938C010E94A520882331F480E033
:10558000DF91CF911F910F910895E8012496CE01EC
:10559000B80141E0CDD3882321F0C80161E06CDF80
:1055A000EFCFCE01B80140E0C3D3882341F3F5CF5C
:1055B0008091D637882311F481E008954091D03549
:1055C0005091D1356091D2357091D3358091D437D7
:1055D0009091D53724ED35E30E94C121882321F134
:1055E0004091D7375091D8376091D9377091DA37D9
:1055F000411551056105710521F41092D63781E0FE
:1056000008958091D4379091D53724ED35E30E94E9
:10561000C121882359F01092D7371092D8371092B1
:10562000D9371092DA37E9CF80E0089580E0089505
:10563000DF92EF92FF920F931F937B018C01D42E88
:105640008091D0359091D135A091D235B091D3359C
:105650008E159F05A007B107F1F0AADF882339F462
:1056600080E01F910F91FF90EF90DF90089580915F
:10567000D4379091D537B801A70124ED35E30E94C6
:105680007520882369F3E092D035F092D1350093EC
:10569000D2351093D335DD2049F081E08093D637A1
:1056A0001F910F91FF90EF90DF90089581E01F917F
:1056B0000F91FF90EF90DF900895CF92DF92EF92DD
:1056C000FF920F931F93CF93DF93EC017A018B012D
:1056D000690189859A85AB85BC850196A11DB11D9F
:1056E00084179507A607B70730F0EF89E03169F016
:1056F000E03209F445C080E0DF91CF911F910F9116
:10570000FF90EF90DF90CF9008959927872F762F05
:10571000652F2B893C894D895E89620F731F841F19
:10572000951F2091D0353091D1354091D23550918F
:10573000D335621773078407950729F040E078DFB7
:105740008823C9F2EF89E03169F18FE790E0A0E0AA
:10575000B0E0E822F9220A231B23F701EE0FFF1F16
:10576000EE0FFF1FEC52FA4C80819181A281B38130
:10577000BF70F60180839183A283B38381E0BCCFA5
:10578000CB01BA0127E096958795779567952A957D
:10579000D1F72B893C894D895E89620F731F841F65
:1057A000951FBFCF8FEF90E0A0E0B0E0E822F92294
:1057B0000A231B23F701EE0FFF1FEC52FA4C8081E6
:1057C0009181A0E0B0E0F60180839183A283B3834E
:1057D00081E092CF4F925F926F927F928F929F92D1
:1057E000AF92BF92CF92DF92EF92FF920F931F93EF
:1057F000DF93CF9300D000D0CDB7DEB78C014983C3
:105800005A836B837C832901842F952FA62FB72F72
:10581000AC01BD01CC24DD2476015E010894A11CFD
:10582000B11C612CE2E07E2E812C912CC8019501E7
:1058300044DF882309F447C0D401C301F80105847B
:1058400004C0880F991FAA1FBB1F0A94D2F7C80E65
:10585000D91EEA1EFB1E49815A816B817C81878992
:10586000803119F1483F8FEF58078FEF68078FE0BD
:105870007807E0F2F201C082D182E282F38281E015
:105880000F900F900F900F90CF91DF911F910F917C
:10589000FF90EF90DF90CF90BF90AF909F908F9050
:1058A0007F906F905F904F900895483FFFEF5F07A4
:1058B000F0E06F07F0E07F07E8F6C8019501FDDE34
:1058C000882309F0B9CF80E0DBCF4F925F926F92CF
:1058D0007F928F929F92AF92BF92CF92DF92EF9280
:1058E000FF920F931F93CF93DF93EC016A017B012B
:1058F00028013901423051056105710590F0898513
:105900009A85AB85BC850196A11DB11D84179507AD
:10591000A607B70730F08F89803109F456C080326E
:1059200091F080E0DF91CF911F910F91FF90EF9068
:10593000DF90CF90BF90AF909F908F907F906F90AF
:105940005F904F9008954A015B0117E0B694A794C9
:10595000979487941A95D1F78B899C89AD89BE89D4
:10596000880E991EAA1EBB1EC501B40141E060DE6F
:105970008823B9F28F898031A9F18FE790E0A0E008
:10598000B0E0C822D922EA22FB22F601EE0FFF1F67
:10599000EE0FFF1FEC52FA4C4082518262827382FA
:1059A0008A89823078F18D819E81AF81B885880D9A
:1059B000991DAA1DBB1D8093D7379093D837A0930C
:1059C000D937B093DA3781E0ADCF852E962EA72E4A
:1059D000BB248B899C89AD89BE89880E991EAA1E1D
:1059E000BB1EC2CF8FEF90E0A0E0B0E0C822D9226A
:1059F000EA22FB22F601EE0FFF1FEC52FA4C518215
:105A00004082CECF81E08ECF2F923F924F925F9215
:105A10006F927F928F929F92AF92BF92CF92DF92BE
:105A2000EF92FF920F931F93DF93CF93CDB7DEB723
:105A300067970FB6F894DEBF0FBECDBF1C01498734
:105A40005A876B877C873E872D87FC0181859285ED
:105A5000A385B4859C01AD012F5F3F4F4F4F5F4F32
:105A60002D833E834F835887ED85FE85408051808E
:105A700062807380411451046104710409F4BEC052
:105A80000894411C511C611C711C1F860097A105C4
:105A9000B10509F454C0D301C201CC24DD24760140
:105AA0008E010F5F1F4F4C8A5D8A6E8A7F8A2EC0DF
:105AB0004C015D01C101B501A4019801FEDD8823FF
:105AC00009F43DC089819A81AB81BC810097A10511
:105AD000B10509F44EC0A50194012F5F3F4F4F4F10
