:020000040000FA
:200000004CC4000079C4000077C4000075C400000C94990F71C400000C94250C0C94710BB5
:200020006BC4000069C4000067C4000065C4000063C4000061C400005FC400005DC4000080
:200040005BC4000059C400000C94F72155C4000053C4000051C400004FC400004DC4000043
:200060004BC4000049C4000047C4000045C4000043C4000041C400003FC400003DC4000040
:200080003BC4000039C4000037C4000000000C001800240030003C004800540060006C004D
:2000A0007800840090009C00A800B400C000CB00D600E100EC00F70002010D011801230149
:2000C0002E01390144014F015A01650170017A0184018E019801A201AC01B601C001CA0135
:2000E000D401DE01E801F201FC0106021002190222022B0234023D0246024F025802610222
:200100006A0273027C0285028E029702A002A802B002B802C002C802D002D802E002E80214
:20012000F002F80200030803100318030C0C0C0C0C0C0C0C0C0C0C0C0C0C0C0C0B0B0B0BAB
:200140000B0B0B0B0B0B0B0B0B0B0B0B0A0A0A0A0A0A0A0A0A0A0A0A0A0A0A0A0909090957
:200160000909090909090909090909090808080808080808080808080808080896979A9B31
:200180009D9E9FA6A7ABACADAEAFB2B3B4B5B6B7B9BABBBCBDBEBFCBCDCECFD3D6D7D9DA10
:2001A000DBDCDDDEDFE5E6E7E9EAEBECEDEEEFF2F3F4F5F6F7F9FAFBFCFDFEFF0001FFFF2A
:2001C0000203FF040506FFFFFFFFFFFF0708FFFFFF090A0B0C0DFFFF0E0F10111213FF145B
:2001E00015161718191AFFFFFFFFFFFFFFFFFFFFFF1BFF1C1D1EFFFFFF1FFFFF2021FF2290
:20020000232425262728FFFFFFFFFF292A2BFF2C2D2E2F303132FFFF333435363738FF39C5
:200220003A3B3C3D3E3F00002110422063308440A550C660E770088129914AA16BB18CC160
:20024000ADD1CEE1EFF13112100273325222B5529442F772D662399318837BB35AA3BDD383
:200260009CC3FFF3DEE36224433420040114E664C774A44485546AA54BB528850995EEE5C3
:20028000CFF5ACC58DD55336722611163006D776F6669556B4465BB77AA719973887DFF743
:2002A000FEE79DD7BCC7C448E5588668A7784008611802282338CCC9EDD98EE9AFF948897B
:2002C00069990AA92BB9F55AD44AB77A966A711A500A333A122AFDDBDCCBBFFB9EEB799B83
:2002E000588B3BBB1AABA66C877CE44CC55C222C033C600C411CAEED8FFDECCDCDDD2AAD43
:200300000BBD688D499D977EB66ED55EF44E133E322E511E700E9FFFBEEFDDDFFCCF1BBF42
:200320003AAF599F788F8891A981CAB1EBA10CD12DC14EF16FE18010A100C230E3200450B7
:20034000254046706760B9839893FBA3DAB33DC31CD37FE35EF3B1029012F322D2323542A2
:20036000145277625672EAB5CBA5A89589856EF54FE52CD50DC5E234C324A01481046674A2
:20038000476424540544DBA7FAB79987B8975FE77EF71DC73CD7D326F2369106B016576662
:2003A0007676154634564CD96DC90EF92FE9C899E9898AB9ABA94458654806782768C0185A
:2003C000E1088238A3287DCB5CDB3FEB1EFBF98BD89BBBAB9ABB754A545A376A167AF10AA2
:2003E000D01AB32A923A2EFD0FED6CDD4DCDAABD8BADE89DC98D267C076C645C454CA23C22
:20040000832CE01CC10C1FEF3EFF5DCF7CDF9BAFBABFD98FF89F176E367E554E745E932E61
:20042000B23ED10EF01E787C3C1E1E1E1E1E3E3EFEFCFCF8F0E0800000000000000000005F
:2004400080E0FFFFFFFF7F1F00000000FFFFFFFFFF07070303010100000000000078FCFC21
:20046000FCFC7800000000000000000000C0201008080402020201010101F00E01000000FF
:20048000000000607070000000000F708000000000008040201010080808000000030408F6
:2004A000101020404040808080800F70800000000000081020404080808020202020202045
:2004C000202020202020202020202020202020002049646C6500205265616400577269745C
:2004E0006500547261636B202020205369646500313434304B204469736B436F70792069BA
:200500006D616765003830304B204469736B436F707920696D616765003430304B20446949
:20052000736B436F707920696D61676500313434304B2072617720696D61676500383030E6
:200540004B2072617720696D616765003430304B2072617720696D61676500696D61676554
:20056000206E6F7420636F6E746967756F7573006572726F72206F70656E696E6720696D6A
:2005800061676500504C454153452057414954003130313031303130313031302E2E2E004F
:2005A00030313031303130313031303130313000202020205550444154494E472043504C89
:2005C000442020202000436F6E74726173743A200053454C4543543A2053617665004E4573
:2005E00058543A204461726B657200505245563A204C69676874657200626567696E0052DF
:20060000656C6561736520627574746F6E7320746F00434F4E54524153542041444A555334
:20062000544D454E54004170702056657273696F6E20312E302051002020202020464C4F6A
:2006400050505920454D552020202020200053442052454144204552524F5220520066691C
:20066000726D776172652E78766600436F756C64206E6F74206F70656E00434845434B20B2
:2006800050494E53202D2044454641554C5400434845434B2050494E20434C4B4F2D48008B
:2006A000434845434B2050494E20434C4B4F2D4C00434845434B2050494E2052455345540B
:2006C00000434845434B2050494E20454A45435400434845434B2050494E20435552525F0A
:2006E0005349444500434845434B2050494E2052445F41434B00434845434B2050494E2007
:200700005752455100434845434B2050494E20535445505F52455100434845434B2050497B
:200720004E20535445505F44495200434845434B2050494E53202D20414C4C0046415441B7
:200740004C204552524F5220202020202020202020005752495445204552524F52202020CE
:2007600020202020202020000000000017000300031F0A1F0A1F050904120F171C0003039F
:20078000000E11110E00050205040E041008000404040010001804031E110F021F00191519
:2007A0001215150A07041F1715091E151D1905031A150B17150F000A00040C04040E1F0A55
:2007C0000A0A1F0E040115030E15161E051E1F150A0E11111F110E1F15151F05050E151DE3
:2007E0001F041F111F1108100F1F041B1F10101F061F1F0E1F0E110E1F05020E191E1F0D7E
:2008000016121509011F010F101F0718071F0C1F1B041B031C031915131F101002040810C9
:20082000101F0406041010100003031A161C1F120C0C12120C121F0C1A16041E050C2A1E98
:200840001F021C001D0010201D1F0C12111F101E0E1E1E021C0C120C3E120C0C123E1C02EE
:2008600002141E0A021F120E101E0E180E1E1C1E120C1206281E1A1F16041B11001F001114
:200880001B04080C047C3C3E5E2B3D3F2F5B5D3B2C2A225C0000E221E62111241FBECFEF56
:2008A000D0E4DEBFCDBF13E0A0E0B1E0E6EAF2E800E00BBF02C007900D92A636B107D9F7A7
:2008C00018E3A6E6B3E001C01D92AB32B107E1F718E000E0C8E9D8E040E006C022974109F7
:2008E000FE014BBF0E94F93DC639D1074007B1F70E94791C0C94424183CB2F923F924F9236
:200900005F926F927F928F929F92AF92BF92CF92DF92EF92FF920F931F93DF93CF93CDB760
:20092000DEB72D970FB6F894DEBF0FBECDBF8B014A013E010894611C711CD301E4E2F1E0F0
:200940002DE001900D922150E1F7BB244424AA2452E8552E42E2E42EF12CE80EF91E3EE0C1
:20096000C32ED12CCC0EDD1E22E8222E312C280C391CC701B80140E250E00E9448298032DC
:200980009105A1F4D8011B968C911B9790E09C012F7330702F30310559F183FD23C0F80149
:2009A0008081853E19F1882309F05AC0D4011C9280E02D960FB6F894DEBF0FBECDBFCF915E
:2009C000DF911F910F91FF90EF90DF90CF90BF90AF909F908F907F906F905F904F903F90F4
:2009E0002F900895F8018081882301F3BB24C1CFBB2021F58C91982F907E903409F0B9CF6B
:200A00009FE1A92EA8221D964C90F1011082A5E7B0E085E7582EF301AD01480D591D819115
:200A20009801280F311DD9018C91DA018D93AD01EC15FD05A1F7BB24B3949BCFD8018C91D7
:200A4000AA948A1599F61D968C911D97841571F6552009F48ECFB3EF5B0EA52DB0E0DBCFC0
:200A60008E3221F2BB2081F031962BE090E001C08191392F3795332737959695932B980F58
:200A80002150B1F7941531F0C801B4010E94882881E08FCFFA2DF130B9F7452D50E04338CF
:200AA0005105B4F79A0160E080E090E0880D991D280D391DD9012C91FC0120836F5F862FFA
:200AC00090E09C01240F351F233831057CF381E070CFEF92FF920F931F93DF93CF93CDB724
:200AE000DEB7A9970FB6F894DEBF0FBECDBFFC01DB018C918E32A9F1838590E08871907019
:200B00008031910509F466C0009759F5848D958DA68DB78D803020E4920726E0A20720E0E0
:200B2000B20709F459C0803020E892072CE0A20720E0B20709F454C0803020E8920726E1BE
:200B4000A20720E0B20709F449C081509044A640B0408F3F2FE2920721E1A20720E0B207D6
:200B600078F020E0822FA9960FB6F894DEBF0FBECDBFCF91DF911F910F91FF90EF9008950B
:200B8000CF017E010894E11CF11CB7010E9488281E86198A8E01025F1F4FC801B70141E00F
:200BA0000E94B32E882371F0C80163EC73E340E052E00E944829C8010E94B22B8091153431
:200BC000813081F08989882361F2C8010E94B22B20E0C8CF21E0C6CF23E0C4CF25E0C2CF42
:200BE00024E0C0CF80911634882361F78091043490E0A0E0B0E0BA2FA92F982F8827209153
:200C00000534820F911DA11DB11DB695A79597958795B695A79597958795803921E09207DF
:200C200020E0A20720E0B207F1F0803223E0920720E0A20720E0B207A1F0803A25E09207D8
:200C400020E0A20720E0B20709F0BCCF28E08989882309F487CFC80129A70E94B22B29A5B0
:200C600081CF27E0F4CF26E0F2CF2F923F924F925F926F927F928F929F92AF92BF92CF92D8
:200C8000DF92EF92FF920F931F93DF93CF93CDB7DEB7C05FD0400FB6F894DEBF0FBECDBF1A
:200CA0007C011092670310926603829640E050E0BA010E94CA2A03E4C02ED12CCC0EDD1E40
:200CC00013E6A12EB12CAC0EBD1EB4E26B2E712CC701B601A50111DE8823E1F18091660303
:200CE0009091670321E08734920708F0A7C1C601B501EFDE882E882359F380916603909122
:200D00006703869D8001879D100D969D100D11240D531C4FC801B50146E150E00E94393E45
:200D2000B8016A5E7F4FC6010E9488288091660390916703869DF001879DF00D969DF00DE1
:200D40001124ED53FC4F83A201969093670380936603BECF2091660330916703C751DF4FF6
:200D600039832883C95ED040F70185A182508230A8F184E290E0C751DF4FE881F981C95E74
:200D8000D040E89F8001E99F100DF89F100D11240D531C4FC80160E071E046E150E00E948F
:200DA000393EC801469660E071E04DE050E00E94393E82E0F80183A3C751DF4F28813981E6
:200DC000C95ED0402F5F3F4FC751DF4F39832883C95ED0403093670320936603A6EE2A2EA7
:200DE000A3E03A2E80E090E07E010894E11CF11CF7E1CF2ED12CCC0EDD1EC751DF4FE881BD
:200E0000F981C95ED0408E179F0708F01EC1FC013196C351DF4FF983E883CD5ED040C751BF
:200E2000DF4F28813981C95ED040E217F30708F026C1C1018397F101B496C151DF4FF98344
:200E4000E883CF5ED0405F01C351DF4F48805980CD5ED040CA51DF4F8883C65ED040910152
:200E60002D503040C551DF4F39832883CB5ED040C951DF4F39822882C75ED040392EC70190
:200E8000CA51DF4F6881C65ED040732D46E150E00E94393E88240AC00E0D1F1DF801808115
:200EA00090E00E94FD3DF80180838394F70101900020E9F73197EE19FF09082D10E00E1729
:200EC0001F0750F3EDED8E2EEFEF9E2E8A0C9B1C682C292CC601B40146E150E00E94393E47
:200EE00077240AC00C0D1D1DF801808190E00E94FD3DF80180837394F60101900020E9F769
:200F00003197EC19FD09072D10E00E171F0750F3C701B60146E150E00E942B3E282F392FAC
:200F2000C951DF4FE881F981C75ED04080818150823008F480C0F50180818150823008F41B
:200F400077C0121613060CF055C0CE018D96CA51DF4F6881C65ED040732D46E150E00E9417
:200F6000393ECA51DF4F8881C65ED040932D662D722D46E150E00E94393E862D922DBE01E1
:200F8000635D7F4F46E150E00E94393ECE018D96C551DF4F68817981CB5ED0404DE050E0A4
:200FA0000E94393E84010A5E1F4FC551DF4F88819981CB5ED040B8014DE050E00E94393EEE
:200FC000C801BE01635D7F4F4DE050E00E94393EC951DF4FE881F981C75ED0408081F5012E
:200FE0009081C951DF4FE881F981C75ED0409083F50180830894411C511C24E230E0A20E48
:20100000B31EC751DF4F88819981C95ED0404816590608F434CFC151DF4F28803980CF5ED5
:20102000D040C351DF4F88819981CD5ED040E5CE28513C4F86CF285E33407DCFC751DF4F69
:2010400099838883C95ED0408FCEC051DF4F0FB6F894DEBF0FBECDBFCF91DF911F910F912F
:20106000FF90EF90DF90CF90BF90AF909F908F907F906F905F904F903F902F900895C101EF
:201080008496C151DF4F99838883CF5ED040C3CF8F929F92AF92BF92CF92DF92EF92FF9238
:2010A0000F931F93CF93DF93809168039091690320916A0330916B032817390728F4309354
:2010C000690320936803C90104968217930730F424503040309369032093680380E060E0FA
:2010E0000E94372281E06FE70E942822C3E1D0E081E060E40E9428222197D1F783E091E019
:201100000E942C23C3E1D0E081E060E40E9428222197D1F781E06FE70E94282220916603BC
:20112000309167032115310509F464C14091680350916903CA0105964817590708F033C15C
:201140004217530708F02FC164E270E0469F7001479FF00C569FF00C112486EE93E0E80E23
:20116000F91EEA0191E0C92ED12CBB24B39480916A0390916B03C817D90709F0BB24AC2C66
:2011800080E06C2D0E94372204E510E007C060E081E00E9428220150104049F0BB20B9F3CD
:2011A0006FE781E00E94282201501040B9F781E06A2D0E943722870103521040902E812EAE
:2011C000C8016B2D43E50E944322F70180818150823008F4BDC0BB2009F0A4C08601219614
:2011E0004091680350916903CA010596C817D907E0F120916603309167032630310508F0A7
:2012000047C0EE24E39482E56E2D0E94372281E060E00E94282281E060E00E942822E394B0
:201220007E2D763081F780916803909169039801280F391F40916A0350916B034217530774
:2012400008F4E2C02150304030936B0320936A030430110509F02CCF009709F429CF01975C
:20126000909369038093680323CF20916603309167030894C11CD11C64E270E0E60EF71E25
:20128000C217D30708F471CF2630310508F4B9CFE7E2F0E04E9FC0014F9F900D5E9F900DE3
:2012A00011248D539F4FB9010E94A83D88E0E82EE60E83EC90E0B9010E94A83DCE2CC61A7E
:2012C000C8E0D0E0BB24B39482E56B2D0E94372281E060E00E9428224C2F9E01295F3F4FD9
:2012E0002C173D070CF484C060E00AC0E41650F0669560684F5F842F90E0281739074CF090
:201300004C15A0F766954F5F842F90E028173907BCF781E00E942822B39428967B2D763037
:2013200099F681CF82E893E0692D782D46E150E00E94393EB8016A5E7F4F8CE693E04DE0E5
:2013400050E00E94393EF70180818093980346CF89E46A2D0E943722BB2041F181E06FE7C5
:201360000E94282281E063E40E94282281E06DE50E94282281E06DE50E94282281E06DE5FC
:201380000E94282281E06BE50E94282281E06BE50E94282281E063E40E9428226FE781E0DC
:2013A0000E94282218CF00E010E027CF81E060E00E94282281E06CE30E94282281E062E2C6
:2013C0000E94282281E062E20E94282281E062E20E94282281E064E20E94282281E064E2C5
:2013E0000E94282281E06CE30E94282260E0D7CF60E08FCF80E061E00E9437228FE091E065
:2014000060E044E50E944322DF91CF911F910F91FF90EF90DF90CF90BF90AF909F908F9084
:2014200008958130910559F0009721F48091EF35882309F408958CEE95E30C94B22B109248
:20144000EC351092EF350895DF92EF92FF920F931F93CF93DF93082F2B9882E282B95D98CF
:20146000429A289A45980E947B23CDEAD3E0FE0101900020E9F73197EC1BFD0B8E2F81950D
:20148000880F865D65E00E943722CE0160E044E50E9443220E94F021002309F438C00AE698
:2014A00014E0DD2480E06D2D0E9437222AE1E22E81E060E00E942822EA94D1F790E1E92ECC
:2014C000F12CE00EF11EE801FE01649181E00E9428222196EC16FD06B9F7E8012F9601505D
:2014E0001040FE01649181E00E94282221970C171D07B9F70AE181E060E00E9428220150E3
:20150000D1F7D394FD2DF43051F18701CBCFC6E2D4E0FF2480E06F2D0E94372201E281E030
:2015200060E00E9428220150D1F78E010F5E1F4FFE01649181E00E94282221960C171D07BD
:20154000B9F782E2E82E81E060E00E942822EA94D1F7F394FF2DF43011F0E801DBCF98E0AB
:201560002FEB37E249E0215030404040E1F700C0000085B1892785B9F3CFEF920F9336B126
:2015800091E0811190E0331F3327331F931759F0E9B1E095E170F0E081E090E0662339F430
:2015A000E817F90749F080E00F91EF90089580E090E0E817F907B9F766B16095617070E02B
:2015C00081E090E0442311F080E090E06817790751F790B181E0211180E0991F9927991F57
:2015E000891709F326B191E0011190E081E021FF80E09817C1F229B191E0E11090E081E035
:2016000023FF80E08927D0CF559A209A3A9A3D9A3E9A3B9A239A289A429A45984698439A05
:201620002B9A8FE781B95C9A599A5A9A5F9A5B9A179A589A409A419AE3E7F0E08081816096
:201640008083EDE6F0E080818260808380818160808308951F93DF93CF93CDB7DEB72A971C
:201660000FB6F894DEBF0FBECDBFCE010196DC01ECE2F3E02AE001900D922150E1F7E0914B
:201680009A03F0E0F595E795F595E795F595E795F595E7951FB7F894E53008F0E4E0F0E0C2
:2016A000EE0FFF1FE80FF91F20813181220F331F40E050E060E07DE281E391E00E94DE3DA9
:2016C0003093A9032093A8031FBF82E086BB2A960FB6F894DEBF0FBECDBFCF91DF911F9135
:2016E00008951F920F920FB60F920BB60F9211242F933F934F935F936F937F938F939F932E
:20170000AF93BF93CF93DF93EF93FF93489B2FC0E0919A038091A303882309F03DC0F0E045
:20172000E45DFE4F249130E0220F331F21153105A9F537995DC080919A038F5F80939A0390
:2017400080919A03882309F064C04598429A4899FECF4298459A7EDFC091E235D091E335B5
:20176000C330D10508F057C081E080939F03FF91EF91DF91CF91BF91AF919F918F917F91AB
:201780006F915F914F913F912F910F900BBE0F900FBE0F901F90189524E230E080E090E034
:2017A00040E050E068E18A539A4CFC01808180FF03C0683159F1542F4F5F842F90E08217BD
:2017C00093070CF1561708F4B4CF862FE82FF0E0EA53FA4C908191FF03C0908191609083EE
:2017E0009081946090838F5F581780F7379BA3CF80919A03882309F4A3CF80919A03815072
:2018000080939A039DCF4831E9F2CDCF542F642FD3CF459A9BCF8DEA93E061E371E046E115
:2018200050E00E94393EC851DC4FD093C535C093C43510929E0381E080939F038093A00363
:201840001092E3351092E2358FCF1F920F920FB60F920BB60F9211241F932F933F934F9340
:201860005F936F937F938F939F93AF93BF93CF93DF93EF93FF9386B190E0959587958170B4
:2018800090919C03891791F09091A603923009F46DC010929C0311E010939F03C091E235D2
:2018A000D091E335C330D10508F047C086B1817011E0812790919E038917C9F080939E0357
:2018C00080919E03882349F546988FE781B980916B008F7780936B00C091E235D091E335FE
:2018E000C330D10508F045C081E080939F03FF91EF91DF91CF91BF91AF919F918F917F913C
:201900006F915F914F913F912F911F910F900BBE0F900FBE0F901F90189511B8469A80912E
:201920006B00806880936B0080B180788093E1351092E3351092E235D7CF8DEA93E061E33D
:2019400071E046E150E00E94393EC053D84FD093C535C093C43510929E0310939F031093B8
:20196000A0031092E3351092E235A0CF80939C0392CF8DEA93E061E371E046E150E00E9457
:20198000393EC854D44FD093C535C093C43510929E0310939F031093A0031092E3351092BE
:2019A000E235A2CF1F93E0B1E0688091E2359091E3358430910588F48330910509F487C060
:2019C000DC01A35EBC4F2C912E1709F404C11092E3351092E2351F910895F0E0EA5DFE4F36
:2019E000E49132E08F3B930748F59C01237030702230310509F4BBC02330310509F449C15F
:201A00002130310509F418C1EE0FEE0FE093E4354091E83550E09A01220F232F221F330B28
:201A20002093E935440F551F422B4093E83501969093E3358093E2351F910895F2E08F3BCC
:201A40009F0709F4C1C022E0803C920709F4CEC032E0813C930709F4E2C1F2E0823C9F0741
:201A600009F0B5CF8091E435982F990F990F9093E435E82B9091E835E917C9F08DEA93E078
:201A800062E971E046E150E00E94393E80E490E09093C5358093C43510929E0381E0809386
:201AA0009F038093A0031092E3351092E235E091E535F0E0EA53FA4C808182608083808196
:201AC0008160808380818B7F80832B9A80CFF0E0EA5DFE4F1491E0919A038091A303882387
:201AE00009F082C0F0E0E45DFE4FE4911E1708F04DC1E0919A03882309F074C0F0E0E45DA6
:201B0000FE4FE49180919C03E89F802D1124810F8093E53590E0DC01AA53BA4C2C9122FD01
:201B2000E0C0982F8827990F8D539C4F9093EB358093EA358C9184608C938C918D7F8C933F
:201B400080919A038093DE3580919C038093DF351093E0352B981092E8351092E735109240
:201B6000E6358091E2359091E335019661CF5091E435452F407C4E2B2091E6354227843195
:201B8000910578F0E091EA35F091EB354193F093EB35E093EA355091E4358091E2359091CA
:201BA000E3356091E9352091E73530E0260F311D240F311D2093E7353093E935550F550FA5
:201BC0005093E435019634CFEE0FEE0FE093E43580EC92E02DCF2091A203222309F0F7CEB6
:201BE000019626CFE2E18ECFE2E180CF8091E435982F990F990F9093E435807C8E2B9091D4
:201C0000E635891709F46AC08DEA93E06CE671E046E150E00E94393E8EE390E09093C535E7
:201C20008093C43510929E0381E080939F038093A00381E090E0FCCE5091E435452F407CC4
:201C40004E2B2091E83542278431910578F0E091EA35F091EB354193F093EB35E093EA35E7
:201C60005091E4358091E2359091E3356091E9352091E63530E0260F311D240F311D209367
:201C8000E6353093E935550F550F5093E4350196CFCE4091E4354E2B2091E7354227843102
:201CA000910568F0E091EA35F091EB354193F093EB35E093EA358091E2359091E3355091BA
:201CC000E9352091E83530E0250F311D240F311D2093E8353093E9350196AACE81EC92E066
:201CE000A7CE30919A0320919C038DB79EB70C970FB6F8949EBF0FBE8DBFADB7BEB711963E
:201D00008DEA93E0EDB7FEB79283818386E190E013969C938E93129788E591E015969C9336
:201D20008E93149716963C93169717961C92179718962C93189719961C9219971A961C931E
:201D40001A971B961C920E94483E8DE390E09093C5358093C43510929E0381E080939F03E9
:201D60008093A0031092E3351092E2358091E53590E02DB73EB7245F3F4F0FB6F8943EBF67
:201D80000FBE2DBFDC01AA53BA4CCBCE20919A038DB79EB70A970FB6F8949EBF0FBE8DBFC2
:201DA000ADB7BEB711968DEA93E0EDB7FEB79283818386E190E013969C938E93129782E468
:201DC00091E015969C938E93149716961C93169717961C92179718962C93189719961C9262
:201DE0000E94483E8CE390E09093C5358093C43510929E0381E080939F038093A003109202
:201E0000E3351092E2358091A3032DB73EB7265F3F4F0FB6F8943EBF0FBE2DBF6ACE8091FE
:201E2000E435982F990F990F9093E435807C8E2B9091E735891759F08DEA93E06FE771E0CA
:201E400046E150E00E94393E8FE390E0E7CE82EC92E0EECD4091A4035091A503E2EEF2E03D
:201E60002591349160E07FEF2627372791EA692F632770E0660F771F6A5D7D4FFB01659111
:201E80007491322F2227262737279327E92FF0E0EE0FFF1FEA5DFD4F65917491322F2227F3
:201EA00026273727EBEFE327F0E0EE0FFF1FEA5DFD4F65917491322F222726273727B82FDE
:201EC000BB0FA0E0AD53BC4F80E090E0722F6627ED91E327F0E0EE0FFF1FEA5DFD4F2591F3
:201EE000349126273727019662E08030960771F73093A5032093A40342175307C9F08DEA3C
:201F000093E065EA71E046E150E00E94393E86E490E09093C5358093C43510929E0381E097
:201F200080939F038093A0031092E3351092E23508951F920F920FB60F920BB60F921124D7
:201F40002F933F934F935F936F937F938F939F93AF93BF93EF93FF9390B180919E0388236B
:201F600009F456C0892F80789091E135891709F44FC08093E1359091A303992309F46FC0E3
:201F8000882309F461C020B12F708091E435282B2093E4358091E2359091E3358230910516
:201FA00009F45FC0009709F446C08130910509F46DC032E08330930708F458C0A2E0833052
:201FC0009A0709F49AC0B2E084309B0709F530E08091A4039091A503822B932B9093A5035C
:201FE0008093A4038091E53535DFE091E535F0E0EA53FA4C8081826080838081816080833F
:2020000080818B7F80832B9A1092E3351092E235FF91EF91BF91AF919F918F917F916F917A
:202020005F914F913F912F910F900BBE0F900FBE0F901F901895213A59F781E090E09093D2
:20204000E3358093E235E4CF80B190E082959295907F9827807F98278093E435D9CFA2DCCE
:20206000D7CF2B3FE9F0213A79F6D2CF3091E535F32FFF0FE0E0E80FF91FE054FC4F208310
:2020800001969093E3358093E235C2CF213A09F0BBCF82E090E09093E3358093E235B8CF17
:2020A00083E090E09093E3358093E2352091A7032093E535822F90E0FC01EA53FA4C30816E
:2020C00032FD26C0982F8827990F8D539C4F9093EB358093EA3580818460808380818D7F98
:2020E000808380919A038093DE3580919C038093DF352093E0352B988BCF1092A403209351
:20210000A50384E092E09093E3358093E23580CF50919A0340919C032DB73EB72C503040DA
:202120000FB6F8943EBF0FBE2DBFEDB7FEB731962DEA33E0ADB7BEB712963C932E93119795
:2021400026E130E03383228328E531E0358324835683178240871186938782870E94483E75
:2021600087E490E09093C5358093C43510929E0381E080939F038093A0031092E3351092F0
:20218000E2352DB73EB7245F3F4F0FB6F8943EBF0FBE2DBF3DCFF89490919E03992341F4EC
:2021A0008F7782B9459A079BFECF0799FECF4598789408958AE082B9459A079BFECF07990A
:2021C000FECF4598E091A50381EAE827F0E0EE0FFF1FEA5DFD4F859194913091A40320E0A1
:2021E000822793279093A5038093A40381E182B9459A079BFECF0799FECF45980895982F5E
:2022000092959F7092B9459A079BFECF0799FECF4598482F4F70E091A503E827F0E0EE0F7A
:20222000FF1FEA5DFD4F859194913091A40320E0822793279093A5038093A40342B9459A88
:20224000079BFECF0799FECF459808952F923F924F925F926F927F928F929F92AF92BF92CE
:20226000CF92DF92EF92FF920F931F93DF93CF9300D00F92CDB7DEB78983692EA0E2CA2EAB
:20228000A3E0DA2E992422243324EE24FF2400E010E088C01070C801880F991F2801440CFB
:2022A000452C441C55085194482A592AF6010191852D9927820D931D800F911DAFEF4A2295
:2022C0005524D6011196AC906F010894C11CD11CA7014A0D511D9C0120703170232F33270E
:2022E000420F531F3FEF232E312C2822392271802FEFE22EF12CE422F522872C8E240425B3
:2023000010E0A224BB24F501E07CF070F595E795F595E795F595E795F595E7959801207C29
:2023200030703595279535952795E22BF32B882D829586958695837090E0E82BF92BE458EE
:20234000FE4F84914A835B8326DF0F73107004581E4FF80184911FDF80919F034A815B813A
:20236000882309F0A9C00894C11CD11C8201070D111D40705170452F5527040F151FF50187
:20238000EF73F070E458FE4F849105DFE82DF0E0EF73F070E458FE4F8491FDDE9394F92D8C
:2023A000FE3A41F0292D243009F074CF9981C92ED62C70CF1070C801880F991F5801AA0CD5
:2023C000AB2CAA1CBB08B194A82AB92AD6010C91200E311C8B2D9927280E391E1196CC90AC
:2023E000EC0CF11CC10180709170892F9927E80EF91E0A2510E0C224DD24F601E07CF070E7
:20240000F595E795F595E795F595E795F595E795C801807C90709595879595958795E82B40
:20242000F92BE458FE4F8491B6DEF801EF73F070E458FE4F8491AFDEF601EF73F070E4586B
:20244000FE4F8491A8DEF101E07CF070F695E795F695E795C501807C90700024880F991FA3
:20246000001C880F991F001C892F902DE82BF92BC701807C9070929582958F7089279F7069
:202480008927E82BF92BE458FE4F849184DEF101EF73F070E458FE4F84917DDEF701EF734E
:2024A000F070E458FE4F849176DEF501EF73F070E458FE4F84916FDE0F900F900F90CF91EA
:2024C000DF911F910F91FF90EF90DF90CF90BF90AF909F908F907F906F905F904F903F90D9
:2024E0002F9008951F93CF93DF938FEF99E6A8E181509040A040E1F700C000008CEE95E369
:2025000063EB71E041E00E94B32E882309F46DC08CEE95E363EC73E040E052E00E944829AA
:2025200097FD78C010920836109207368BE796E10E94483D1FB7F8940E94F23CEC011FBF03
:202540008CEE95E30E94B22B0E946F23209761F1ADB7BEB718970FB6F894BEBF0FBEADBF3E
:20256000EDB7FEB731968DEA93E012969C938E93119786E190E09383828380ED91E09583C9
:202580008483D783C6830E94483E8DB79EB708960FB6F8949EBF0FBE8DBF81E00E94240A3A
:2025A000DF91CF911F91089589E062E00E9437228DEA93E060EC71E046E150E00E94393E61
:2025C0008DEA93E060E044E50E9443228FEF9AE1A7EB81509040A040E1F700C00000FE01FE
:2025E0000995DF91CF911F91089564E00E9437228BE696E060E00E94C4228DEA93E06EE5F5
:2026000076E00E94053E80E00E94240ADF91CF911F9108958DEA93E06EE476E00E94053EBB
:2026200081E00E94240A7ECFCF93DF930E946F2380E060E00E94372288E396E061E00E94B5
:20264000C42286E296E00E940C3E8195880F865D62E00E94372286E296E060E00E94C42257
:202660004DB75EB7485050400FB6F8945EBF0FBE4DBFEDB7FEB73196CDEAD3E0ADB7BEB76F
:202680001296DC93CE93119786E190E09383828382EE91E0958384838091AC0386831782C6
:2026A0000E94483EFE0101900020E9F73197EC1BFD0B4DB75EB7485F5F4F0FB6F8945EBFAF
:2026C0000FBE4DBF8E2F8195880F865D63E00E943722CE0160E044E50E9443220E94F021A4
:2026E00093E028E04FEF53ED60E3415050406040E1F700C0000085B1822785B9915091F7BF
:202700000E94F421DF91CF910895CF92DF92EF92FF920F931F93DF93CF9300D000D0CDB765
:20272000DEB780E060E00E9437220E946F2380E060E00E94372282E196E060E00E94C422F9
:2027400080E062E00E9437228FEF95E060E00E94C42280E063E00E94372289EF95E060E056
:202760000E94C422499BFECF4A9BFCCF4C9BFACF80E060E00E9437220E946F2380E062E04F
:202780000E9437228BEE95E060E00E94C42280E063E00E9437228EED95E060E00E94C42232
:2027A00080E064E00E94372281ED95E060E00E94C4228E010F5F1F4F83EFE82E81E0F82E55
:2027C000B4E0CB2ED12C16C0809115368F3F29F0809115368F5F8093153680E061E20E9469
:2027E00028226091153680E00E94282280E060E20E94282280E060E00E94372286EC95E0F7
:2028000060E00E94C422809115362DB73EB7285030400FB6F8943EBF0FBE2DBFEDB7FEB773
:202820003196ADB7BEB712961C930E931197D382C282F582E482868317820E94483E2DB734
:202840003EB7285F3F4F0FB6F8943EBF0FBE2DBFC80160E044E50E9443228FEF99E6A8E1A8
:2028600081509040A040E1F700C00000499B04C04A9B02C04C99FACF4A9BA6CF49990BC03B
:2028800080911536813808F4A8CF80911536815080931536A2CF4C99A0CF6091153681E0C3
:2028A00090E00E9490408FEF99E6A8E181509040A040E1F700C000000E946F230F900F9025
:2028C0000F900F90CF91DF911F910F91FF90EF90DF90CF90089580E060E00E9437220E94E4
:2028E0006F2380E060E00E94372280EB95E061E00E94C42289E062E00E94372280EA95E07D
:2029000060E00E94C42289E063E00E94372280E995E060E00E94C4228FE065E00E943722F3
:2029200084E895E060E00E94C422DCCD1F930E946F2380E060E00E94372282E893E060E0A7
:2029400044E50E94432280E061E00E9437228CEE95E36CE673E043E00E94B32E882309F4C6
:202960008AC080919803833029F1863019F182E08093A6038CEE95E369E076E34DE056E3BC
:202980000E94D5278823D1F48BE595E060E00E94C4228FEF93E2A4EF81509040A040E1F79D
:2029A00000C0000010E08CEE95E30E94B22B812F1F91089581E08093A603DCCF80E061E090
:2029C0000E94372280919803853009F4BFC0863008F05FC0833009F4A1C0843039F48DE3F0
:2029E00095E060E00E94C4228091980391E0863008F490E09093C3354F998CC0992309F453
:202A00005CC081E08093A20348E754E060E070E08CEE95E30E94CA2A8CEE95E363EC73E072
:202A200040E052E00E944829E091C303F0E0EC53FC4F10821092D90380E062E00E943722F3
:202A400084EC93E060E044E50E94432280E064E00E94372282EE94E060E00E94C4228091C7
:202A6000A203882379F511E08CEE95E30E94B22B812F1F9108958CEE95E36CE673E041E081
:202A80000E94B32E882309F464C081E08093A20371CF873009F452C0873008F447C0883056
:202AA00009F0A4CF80EF94E060E00E94C42281E08093A3038091980399CF44E254E060E037
:202AC00070E0A6CF8DE460E00E94372281E060E00E94282281E068E70E94282281E06EE7A6
:202AE0000E94282281E069E70E94282281E069E70E94282281E06EE70E94282281E068E75E
:202B00000E94282211E08CEE95E30E94B22B812F1F91089581E08093A20370CF8CE495E02D
:202B200060E00E94C4228091980360CF89E195E060E00E94C4228091980358CF85E095E09E
:202B400060E00E94C4228091980350CF8DE295E0ABCF80E795E060E00E94C4221ACF289837
:202B60008FE798E3A1E081509040A040E1F700C0000082E282B95D98289A0C947B231F9384
:202B80001FB7F894E0919A03F0E0EE0FFF1FE850F041808180939A030E94040B10929A03D0
:202BA00010929B0310929F0310929C0310929D0310929E031092A10382E08093A6031092C5
:202BC000A7031092A2031092A3031092A0031092AB031092AA031092C5351092C4351092FF
:202BE000E3351092E23580E090E0FC01EA53FA4C1082019688319105C1F711B8469A28981B
:202C00008FE798E3A1E081509040A040E1F700C0000080B18F778093AC0346988FE781B9A2
:202C2000289A9DDF0E946F231FBF1F910895FF920F931F93CF93DF938C01F090A003C0913D
:202C4000C435D091C5359BDF0E946F2380E060E00E943722FF2009F43FC082E597E061E09D
:202C60000E94C42280E061E00E943722C80160E044E50E9443228DB79EB708970FB6F8946E
:202C80009EBF0FBE8DBFEDB7FEB731960DEA13E0ADB7BEB712961C930E93119786E190E064
:202CA0009383828386EF91E095838483D783C6830E94483E8DB79EB708960FB6F8949EBF44
:202CC0000FBE8DBF80E065E00E943722C80160E044E50E944322FFCF8CE397E061E00E946B
:202CE000C42280E061E00E943722C80160E044E50E944322F0CF209107363091083682E00B
:202D00002030380759F0F901ED53FC4F80812F5F3F4F309308362093073608958CEE95E3B9
:202D200063EC73E040E052E00E94482997FD0BC0109208361092073685B198E0892785B9D2
:202D400020E030E0E0CF89EF91E071DFF1CF9F92AF92BF92CF92DF92EF92FF920F931F93C0
:202D6000CF93DF9387E893E10197F1F700C0000029E0E0E0F0E0209357006491A7E8B3E1A1
:202D80001197F1F700C00000E3E0F0E020935700849190E0E7E8F3E13197F1F700C00000AE
:202DA000E2E0F0E020935700249130E0A7E8B3E11197F1F700C000008A3D910509F418C20B
:202DC000EDB7FEB73C970FB6F894FEBF0FBEEDBF31967DEAC72E73E0D72EADB7BEB7129644
:202DE000DC92CE92119746E150E05383428349E052E0558344836683178291878087338716
:202E000022870E94483EEDB7FEB73C960FB6F894FEBF0FBEEDBF81E00E94240A2091AC039E
:202E20002F3709F4F2C12D3049F14DB75EB7485050400FB6F8945EBF0FBE4DBFEDB7FEB704
:202E40003196ADB7BEB71296DC92CE92119786E190E09383828380E392E095838483268325
:202E600017820E94483EEDB7FEB738960FB6F894FEBF0FBEEDBF81E00E94240A1092800090
:202E80001092810080916400886080936400289812B842985D98459881E061E041E021E041
:202EA00000E0EE240E94BD0A882309F420C211E012B980E061E041E021E000E0EE240E941A
:202EC000BD0A8127C82FD0E012B8429A81E061E041E021E00E94BD0AF82E12B981E061E076
:202EE00041E021E00E94BD0AF1262F2D30E02C2B3D2B1827122B09F0F0C112B8429852E009
:202F0000F52EF2B8A12EBB2481E060E041E021E000E0EE240E94BD0A982E12B85D9A81E030
:202F200061E041E021E00E94BD0A11E09126C92DD0E0812790E0C82BD92BF2B881E061E01C
:202F400041E021E00E94BD0ACA29DB2918271C2B09F0B9C112B85D9844E0F42EF2B8A12E78
:202F6000BB2481E061E040E021E000E0EE240E94BD0A982E12B8459A81E061E041E021E021
:202F80000E94BD0A11E09126C92DD0E0812790E0C82BD92BF2B881E061E041E021E00E945B
:202FA000BD0ACA29DB2918271C2B09F082C112B8459880E282B9A12EBB2481E061E041E0DC
:202FC00020E000E0EE240E94BD0AF82E88E082B981E061E041E021E00E94BD0A11E0F12698
:202FE000CF2DD0E0812790E0C82BD92B88E282B981E061E041E021E00E94BD0ACA29DB294D
:2030000018271C2B09F04BC112B880E182B981E061E041E021E001E0EE240E94BD0AFF247C
:20302000F394F826F12A09F030C112B880E482B981E061E041E021E000E0EE24E3940E94AE
:20304000BD0A91E09827892F90E02F2D30E0822B932B009709F00FC112B8289A90DD489940
:2030600000C1459A11B8469A8FEF9FEF03C0019709F447C1079BFBCF8FEF9FEF03C00197C8
:2030800009F449C10799FBCF459846988FE781B981E060E041E020E000E0EE240E94BD0A37
:2030A000882309F4D4C00AE614E0AA2480E06A2D0E9437223AE1F32E81E060E00E94282267
:2030C000FA94D1F7F02EE12EC0E0D0E00DC0C701E92FFE2DEC0FFD1F649181E00E942822EC
:2030E0002196C031D10531F09A2D923081F7EAEAF4E0F0CFCFE0D0E00EC0C701E92FFE2D91
:20310000EC0FFD1F649181E00E9428222197BFEFCF3FDB0731F0AA2DA23079F7EAEAF4E01E
:20312000EFCF2AE1F22E81E060E00E942822FA94D1F7A394005F1F4FEA2DE43009F0B6CF16
:2031400000D000D000D0EDB7FEB73196ADB7BEB71296DC92CE92119786E190E093838283F6
:2031600080E492E0958384830E94483EF60101900020E9F73197ED5AF3402DB73EB72A5F06
:203180003F4F0FB6F8943EBF0FBE2DBF8E2F8195880F865D65E00E943722C60160E044E5DD
:2031A0000E9443222B988FEF93EDA0E381509040A040E1F700C0000085B198E0892785B90F
:2031C0002FEF33ED40E3215030404040E1F700C0000085B1892785B9DF91CF911F910F9151
:2031E000FF90EF90DF90CF90BF90AF909F9008952C3F310509F0E4CDEDEACE2EE3E0DE2EAC
:203200002091AC032F3709F00ECE00D000D000D0EDB7FEB73196ADB7BEB71296DC92CE9234
:20322000119786E190E09383828382E292E0958384830E94483EEDB7FEB736960FB6F89461
:20324000FEBF0FBEEDBF80E00E94240A17CE8DEA93E06AE776E00E94053E81E00E94240A7C
:2032600022CF8DEA93E061EB76E00E94053E81E00E94240AF6CE8DEA93E061EC76E00E94C8
:20328000053E81E00E94240AE7CE8DEA93E061ED76E00E94053E81E00E94240AC6CE8DEA56
:2032A00093E065EE76E00E94053E81E00E94240AABCE8DEA93E066EF76E00E94053E81E088
:2032C0000E94240A74CE8DEA93E065E077E00E94053E81E00E94240A3DCE8DEA93E068E102
:2032E00077E00E94053E81E00E94240A06CE8DEA93E06BE277E00E94053E81E00E94240AE9
:20330000D6CD8DEA93E060EA76E00E94053E81E00E94240AB1CE8DEA93E06FE876E00E94B2
:20332000053E81E00E94240AAFCEE4E6F0E08081877F808383E48093800089E18093810000
:203340000C942A0B9091A3039923E1F4E82FF0E0E45DFE4FE491F0E0262F30E02E173F0796
:20336000B4F4AF014F5F5F4F55954795E0FD14C031972E173F0759F06417B0F0862F8F5FC8
:20338000841B0895262F30E02131310514F080E00895862F8F5F0895E42FF0E031972E17D3
:2033A0003F0751F780E00895842F860F0895FF920F931F938C01F22E0E94D424882379F15C
:2033C000C80163EC73E30E942C24882391F1E7E1F4E3BF2DBB0FA0E0AD53BC4F81918D934E
:2033E00085E3E33CF807D1F7C80163EC73E30E942C24882311F1E3ECF3E3BF2DBB0FA0E097
:20340000A159BA4F81918D9384E3E731F807D1F7C8010E94BC241F910F91FF9008958DE4F9
:2034200092E005DCC80163EC73E30E942C24882371F681E692E0FBDBCACF81E692E0F7DBD4
:20344000DACF2F923F924F925F927F928F929F92AF92BF92CF92DF92EF92FF920F931F9332
:20346000DF93CF93CDB7DEB760970FB6F894DEBF0FBECDBF982E792E862E8091A30388239E
:2034800009F4B7C004E210E0F2E14F2E512C80E090E020E0FF24E8E1EE2E76E1A72EB12C34
:2034A00061E7C62E62E0D62E1801122F8A539A4CDC018C9180FF35C08091DE35881661F1EB
:2034C0008091DE352DB73EB72A5030400FB6F8943EBF0FBE2DBFEDB7FEB731962DEA33E0B4
:2034E000ADB7BEB712963C932E931197B382A282D582C48286821782808711860E94483EB6
:203500004DB75EB7465F5F4F0FB6F8945EBF0FBE4DBF8DEA93E08BDB5E2D583109F466C071
:20352000F12E1F5F812F90E0821593050CF45AC0BE2DB83109F43EC08091A203882361F400
:2035400066C0EE2DF0E0EA53FA4C80818E7F808380818B7F8083E394FE1498F7EDB7FEB747
:2035600038970FB6F894FEBF0FBEEDBF31960DEA13E0ADB7BEB712961C930E93119786E164
:2035800090E09383828386E892E095838483868217820E94483EEDB7FEB738960FB6F89460
:2035A000FEBF0FBEEDBF80E065E061D7C80160E044E569D760960FB6F894DEBF0FBECDBF49
:2035C000CF91DF911F910F91FF90EF90DF90CF90BF90AF909F908F907F905F904F903F9067
:2035E0002F900895183109F4A3CF60CFF12EE12E98CFE62FF0E0E45DFE4FE4914E2E552416
:203600008201000F111F01151105A1F240CFE8D613D76B877C878D879E87FE1408F461C114
:20362000482D50E05A8749871A01220C331CC101880F991F880F991F880F991F820D931DAE
:203640009C0140E050E029833A834B835C830E2DF101E457FF4F859194919C0140E050E089
:203660002D833E834F8358871E2DAF2C42C08090DF352091A60330E040E050E069817A813D
:203680008B819C810E94893D6B017C018091093690910A36A0910B36B0910C36C80ED91E3D
:2036A000EA1EFB1E282D30E0429EC001439E900D529E900D1124AA2797FDA095BA2FC80E4A
:2036C000D91EEA1EFB1EC00ED11CE11CF11C2F853889322F2227330F2D533C4F892D972D27
:2036E000B701A6010E94F424882371F10F5FA01688F1402F50E0588B4F87FA01EA53FA4C31
:20370000808180FDF3CF8091A303882309F0AFCFC0900936D0900A36E0900B36F0900C36EE
:20372000C00ED11CE11CF11C2091A60330E040E050E06D817E818F8198850E94893DC60EB4
:20374000D71EE81EF91EC3CF8BE992E070DA0F5FA01678F6E12EFA2C8091A303882309F073
:203760004FC0F101E457FF4F65917491A0900936B0900A36C0900B36D0900C36AE0CB11C1B
:20378000C11CD11C80E090E02091A60330E040E050E00E94893DA60EB71EC81ED91E0F2DCB
:2037A00010E00F5F1F4F0E191109222717FD2095322F892D972DB601A5010E948F268823B0
:2037C00059F487C0F801EA53FA4C80818E7F808380818B7F8083E394FE14D0F10E2D10E045
:2037E000B801762F6627770F6D537C4F892D972D0E941D26882331F78EEB92E018DAE2CF0D
:203800008091DF3590E0489E5001499EB00C589EB00C1124CC24B7FCC094DC2C8091093603
:2038200090910A36A0910B36B0910C36A80EB91ECA1EDB1EAE0CB11CC11CD11CB101660F4C
:20384000771F660F771F660F771F620D731D9ACF892D972D0E94D026882309F43EC089E132
:203860008093AB03C1D5E8D5ADB7BEB71C970FB6F894BEBF0FBEADBFEDB7FEB731960DEA8A
:2038800013E012961C930E93119726E130E0338322832FED32E03583248329853A8537836F
:2038A00026832B853C854D855E85621B730B840B950B60877187828793870E94483E4DB7E1
:2038C0005EB7445F5F4F0FB6F8945EBF0FBE4DBF6ACE8BEA92E0ABD97FCF8DEC92E0A7D9DF
:2038E000BECF282D30E03A8729871901220C331C33CF2F923F924F925F926F927F928F9235
:203900009F92AF92BF92CF92DF92EF92FF920F931F93DF93CF93CDB7DEB7CD54D0400FB6C9
:20392000F894DEBF0FBECDBF55D529D9499B04C04A9902C04C9B07C0499904C04A9902C093
:203940004C9901C004DAF1DC0E941413C8D678948FE79AE1A6E081509040A040E1F700C013
:2039600000003ED58FE79AE1A6E081509040A040E1F700C00000499B06C04A9904C04C996E
:2039800002C00E94851389E189831C821C8E1BA21EA28E010F5F1F4FC80161E00E94352F75
:2039A000882309F49BC45DEA852E53E0952E1CD5499906C04A9904C04C9B02C00E946B1406
:2039C000C8010E943506C8010E944808222433248091A003882309F078C0F894D0909A03D0
:2039E000C0909C0310929F0378948091A103882309F07EC080919F03882351F74B9B04C0A1
:203A000007996DC0F1010995499918C080916A0390916B03009771F3019790936B0380934B
:203A20006A03C8010E9448088FEF94E3ACE081509040A040E1F700C00000DCCF4A9B49C02B
:203A40004C99D8CF80919803813009F405C3823009F499C2809168008860809368008091C1
:203A60006800846080936800809168008460809368008091680081608093680010929A0393
:203A80002ED60E949614882309F4A2CF8091A20391E089279091A303992309F4826082B949
:203AA000459AA7E8B3E11197F1F700C000004598B2E4BA95F1F700C04298E1E0E093A10398
:203AC0008091A003882309F488CF8DEA93E0AFD884CF80916A0390916B0301969ECF89B124
:203AE00080FF90CF86B180FF8DCF31998DCF8ACFED2CFF242DB73EB7285030400FB6F89409
:203B00003EBF0FBE2DBFEDB7FEB73196ADB7BEB712969C928E92119726E1422E512C53828F
:203B2000428294E1692E93E0792E75826482F782E6820E94483E2DB73EB7285F3F4F0FB602
:203B4000F8943EBF0FBE2DBF88E164E090D4C40160E044E598D4AC2CBB248DB79EB7089789
:203B60000FB6F8949EBF0FBE8DBFEDB7FEB73196ADB7BEB712969C928E921197538242824E
:203B800089E1482E83E0582E55824482B782A6820E94483E2DB73EB7285F3F4F0FB6F894F7
:203BA0003EBF0FBE2DBF88E364E061D4C40160E044E569D480919B038D1509F4BDC1609143
:203BC0009B03C8013EDCD0929B03C0929D0380E090E0FC01EA53FA4C20812D7F208301969B
:203BE00088319105B1F780919F03882309F0F0CE80919E03882309F091C13D2D303598F7B3
:203C00008091A303882309F0BCC1F701E45DFE4F24918091A703821710F01092A70386B1BA
:203C20004B9903C3881F8827881F8EAF2C9D902D112423969FAF2397A701440F551FCA01EA
:203C4000880F991F880F991F880F991F840F951F28968FAF289729969FAF299730E02A9DD1
:203C6000C0012B9D900D3A9D900D11242C01662457FC6094762C27964CAE5DAE6EAE7FAECA
:203C800027970E2CEF2C000CEE1CFF08000CEE1CFF1CAA0CBB1CA294B294E0EFBE22BA242D
:203CA000AE22BA245E2C5A285FAE852D90E084589E4F44575F4FFA01659074902B967FAE27
:203CC0006EAE2B972D2D2F7321962FAF2197E22FF0E0E458FE4F34912C963FAF2C97FC011E
:203CE000F4912D96FFAF2D972296DFAE22972E96CFAE2E972401F6B0F094FF1CFF24FF1C5E
:203D000009F474C16EAC6F1461F080E464E0AFD3FF2009F491C186ED94E060E035D421E0BA
:203D20002EAF8091AB03813009F48CC18091A303882309F40CC1E090A703F8946E2C7724E5
:203D400076EC872E75E3972E860C971CD4018C9181FDF0C08C9182FDEDC08C9184608C9361
:203D600081E07894882309F441C08091A303882309F054C12B966EAD7FAD2B978091A70338
:203D8000A0900936B0900A36C0900B36D0900C36A80EB11CC11CD11C27968CAD9DADAEAD19
:203DA000BFAD2797A80EB91ECA1EDB1E80E090E02091A60330E040E050E00E94893DA60EC5
:203DC000B71EC81ED91E0CD38091C335882309F413C1C801B601A5012E2DE9DA05D3D401DC
:203DE0008C9182608C938C918B7F8C938091A703882301F5FF2059F085B1B8E08B2785B9DD
:203E00008091AB03823018F081508093AB032091AA03275E2093AA032D3708F008C130E01F
:203E20008091A8039091A903821B930B90938900809388008091A303882309F48FC052E394
:203E4000F52E05C08EE40E94FF10FA9431F080919F038823B9F34201BBCD80919F03882375
:203E6000D1F70E94FF10F394EF2DEC30B1F72FEF3FEF3093A5032093A4030E94DA100E9423
:203E8000DA100E94DA1080919F03882321F78EEF0E94FF1080919F038823E9F622968FADD7
:203EA00022970E94FF1080919F038823A1F62E968FAD2E970E94FF1080919F03882359F680
:203EC0008091A7038F5F0E94FF1080919F03882311F682E00E94FF10F090A4038091A50330
:203EE00090919F03992309F0B6CF0E94FF1080919F03882309F0AFCF8F2D0E94FF10FF24AF
:203F000008C08EE40E94FF10F3943F2D363109F4A8C180919F038823A1F39DCF80E464E0F0
:203F2000A6D28CED94E060E02FD380919F038823E1F359CE80E015CF8091A303882309F4DE
:203F400052CE80919D038C1509F039CE4CCEE090A70323963FAD2397E30EEFCE27E3E22E94
:203F6000F12C0AC08FEF0E94CB100894E108F108E114F10409F489C080919F03882391F3CF
:203F80006ACF22E146CE80919903815080939903C80161E00E94BB2E80919903882389F03E
:203FA000FF249F2DADE09A9FB00111246D537E4CC80141E00E94D92EF39480919903F81607
:203FC00080F310926B0310926A0389D3C8010E943506C8010E9448088FEF99E6A8E181503B
:203FE0009040A040E1F700C00000F2CCC80122966FAD229726DA86CE9301322F2227330F91
:204000002D533C4FC801B601A501EED4882309F0E5CE89EF91E00E941716E0CE28969FADE6
:20402000289729968FAD2997692F782FA7CE1092AA0320E030E0F4CE80ED94E060E0A4D29A
:204040002B9A1EAE1092AB0380E065E010D28AEB94E060E099D26ACEF0909903AF2DBDE097
:20406000AB9FC00111248D539E4C6CE673E04DE050E00E94393EF394F0929903C8016CE65B
:2040800073E041E00E94D92E9CCF8091A603823009F4E4C082E0F82EE090A70380919F0336
:2040A000882309F0D8CE85ED0E94CB1080919F03882309F0D0CE8AEA0E94CB1080919F032E
:2040C000882309F0C8CE86E90E94CB1080919F03882309F0C0CE2C968FAD2C970E94CB1097
:2040E00080919F03882309F0B6CEE091A703F0E0E458FE4F84910E94CB1080919F03882381
:2041000009F0A9CE2D968FAD2D970E94CB1080919F03882309F09FCEEF2DF0E0E458FE4FB6
:2041200084910E94CB1080919F03882309F093CE2196EFAD2197EE252FADE227EF25EF73BC
:20414000F0E0E458FE4F84910E94CB1080919F03882309F080CE8EED0E94CB1080919F0324
:20416000882309F078CE8AEA0E94CB10BAE0FB2E80919F03882309F06ECE8FEF0E94CB1013
:20418000FA94B1F780919F03882309F064CE85ED0E94CB1080919F03882309F05CCE8AEA7C
:2041A0000E94CB1080919F03882309F054CE8DEA0E94CB1080919F03882309F04CCEE09133
:2041C000A703F0E0E458FE4F84910E94CB10C301982F8827990F8D539C4F0E9426118091B3
:2041E0009F03882309F037CE8EED0E94CB1080919F03882309F02FCE8AEA0E94CB10809126
:204200009F03882309F027CE8FEF0E94CB1022968FAD22976091A70395D88093A7034B9B10
:204220006ACD2296DFAC229742014598429A1092A103C8016D2D05D98FE79AE1A6E0815080
:204240009040A040E1F700C000000E94BF15C8010E943506C8010E944808BACB92E2F92E1F
:204260001BCF4CE0F42E80919F03882309F0F3CD0E94FF10FA94B9F78FEF9FEF9093A50329
:204280008093A4030E94DA100E94DA100E94DA1080919F03882309F0DECD8BEF0E94FF1093
:2042A0006301DC2CCC24DD0CA3ECB3E0CA0EDB1EEE24FF240BC00E94FF100894E11CF11C6F
:2042C000F0E0EF16F2E0FF0609F468C0F60181916F0190919F03992371F3BDCD00D000D087
:2042E00000D0EDB7FEB731964DEA842E43E0942EADB7BEB712969C928E92119736E1E32E61
:20430000F12CF382E28287EF92E0958384830E94483EF40101900020E9F73197E819F90927
:204320002DB73EB72A5F3F4F0FB6F8943EBF0FBE2DBF8E2F8195880F865D64E098D0C401C8
:2043400060E044E5A0D08DB79EB70A970FB6F8949EBF0FBE8DBFEDB7FEB73196ADB7BEB78A
:2043600012969C928E921197F382E28283E093E0958384838981868317828B81808711867B
:204380000E94483EEDB7FEB73A960FB6F894FEBF0FBEEDBF80E00E94240A09CBF090A4031A
:2043A0008091A50390919F03992309F054CD0E94FF1080919F03882309F04DCD8F2D0E942B
:2043C000FF1025CF81E090E00C94110A80E090E00C94110A14BC83E085BD81E085BB089510
:2043E00081E080936E00089510926E0008951F920F920FB60F9211248F939F93AF93BF93BC
:204400008091113690911236A0911336B09114360196A11DB11D8093113690931236A093BB
:204420001336B0931436BF91AF919F918F910F900FBE0F901F9018952FB7F89460911136B5
:204440007091123680911336909114362FBF089590E59CBD1DBC882341F05E9A2A986EBD5B
:204460000DB407FEFDCF2A9A08955E98F7CF1F93162F682F606880E0EBDF612F606480E059
:20448000E7DF1F910895AF92BF92CF92DF92EF92FF920F931F93CF93DF93D62EC42EE82E5F
:2044A000F92EBB248FE7A82EF70101917F01002359F4DF91CF911F910F91FF90EF90DF9093
:2044C000CF90BF90AF900895BC1498F70D3609F183E0089F80011124E801C85FD84F065F5A
:2044E000184FFE016491660FD1106A2581E0B0DFB394C017D10749F4BC14B0F6DD20C1F134
:204500006FE781E0A5DFB394CFCF2196BC1460F6E8CFDD2079F163E481E09ADFB394BC1448
:2045200008F0C2CFDD2051F16BE781E091DFB394BC1408F0B9CFDD2029F167E681E088DFCD
:20454000B394BC1408F0B0CFDD20D1F06BE781E07FDFB394BC1408F0A7CFDD2069F067E4D8
:2045600081E076DFB394BC1408F09ECFDD2041F660E0C7CF6CE3D0CF68E3F2CF64E0D5CF1D
:2045800064E0E5CF68E1DACFCF92DF92EF92FF920F931F93CF93DF93D62E8C010F5F1F4FB8
:2045A0002FE7C22EF8013197E491EE2331F1ED3679F183E0E89FF0011124EF01C85FD84FB1
:2045C0009BE0E92E97E0F92EEE0EFF1EFE016491660FD1106C2581E03BDF2196CE15DF05BE
:2045E000A9F7DD2099F06FE781E032DF0F5F1F4FF8013197E491EE23D1F6DF91CF911F9163
:204600000F91FF90EF90DF90CF90089560E0ECCFDD2089F081E063E41BDF81E06BE718DFC4
:2046200081E067E615DF81E06BE712DF81E067E40FDF6FE7D9CF81E06CE30ADF81E064E05E
:2046400007DF81E068E104DF81E064E001DF81E068E3FEDE60E0C8CFEF92FF920F931F939D
:20466000CF93DF93E82EF92EF70101917F010023E1F00D3609F183E0089F80011124E80145
:20468000C85FD84F055F184FFE016491606481E0DFDE2196C017D107B9F781E060E4D8DEBA
:2046A000F70101917F01002321F7DF91CF911F910F91FF90EF90089581E06EE5C9DE81E02E
:2046C00062E4C6DE81E06CE4C3DE81E062E4C0DE81E06CE5BDDE81E060E4BADEC5CFCF93D9
:2046E000DF93C8EFD1E081E060E0B2DE2197D9F7DF91CF91089584EB8093153684E1809375
:20470000163684E080931736569A279A259A229A209A2A9880E090E00E948840813FE1F016
:2047200080E090E061EF0E9490406091153681E090E00E94904080E061E28ADE6091153621
:2047400080E086DE6091163680E082DE80E060E27FDE80E06CE07CCE81E090E00E94884068
:2047600080931536E8CFFC014181842F90E09C013595279520652CBD40FD06C081E04630D7
:2047800019F08DBD2C98089580E08DBD2C980895BF92CF92DF92EF92FF920F931F93CF936F
:2047A000DF938C016B017A0147DEEB01BB24BA94BEBC0DB407FEFDCF8EB5F80182838F3FBA
:2047C000B1F43ADE6C1B7D0B81E06D32780780F381E1F80180832C9A80E0DF91CF911F9117
:2047E0000F91FF90EF90DF90CF90BF9008958E3F19F08FE08083EFCFE114F104F1F00894E4
:20480000E108F1088FEF8EBDE114F10471F0F60180E090E03FEF0DB407FEFDCF2EB5219384
:204820003EBD01968E159F05B0F30DB407FEFDCF8EB5F601EE0DFF1D80838FEF8EBD0DB48C
:2048400007FEFDCF8EB58FEF8EBD0DB407FEFDCF8EB52C9A81E0C1CF0F931F93CF93DF93C7
:20486000EC018B0180DFCE01B80140E052E090DFDF91CF911F910F910895FF920F931F9375
:20488000CF93DF93EB01D8DD8B01FF24FA94FEBC0DB407FEFDCF8EB58F3F69F0CDDD601B8B
:2048A000710B6C177D0798F380E0DF91CF911F910F91FF90089581E0DF91CF911F910F91BD
:2048C000FF900895DF92EF92FF920F931F93CF93DF93EC01D62E79018A0145DFCE016CE2CA
:2048E00071E0CBDF8D2D80648EBD0DB407FEFDCF28E130E0D801C701022E04C0B695A7950D
:20490000979587950A94D2F78EBD0DB407FEFDCF285030408FEF283F380761F7DD20E9F0D1
:204920008D2D883001F587E88EBD0DB407FEFDCF8D2D8C30D1F02FEF9FEF9EBD0DB407FEBF
:20494000FDCF8EB58A8387FD0AC0DF91CF911F910F91FF90EF90DF90089585E9E5CF22234C
:20496000A1F32150EACF8FEFDFCF8FEF8EBD0DB407FEFDCF8EB5DFCFCF93DF93EC01F3DE6F
:20498000CE016CE020E030E0A9019CDF882339F083E088832C9A80E0DF91CF9108952C9A2C
:2049A00081E0DF91CF910895CF93DF93EC019A01AB018B81833039F069E0220F331F441F0A
:2049C000551F6A95D1F7CE0162E17CDF882339F085E088832C9A80E0DF91CF9108952C9A92
:2049E00081E0DF91CF910895CF92DF92EF92FF920F931F93CF93DF93EC017A018B0169017F
:204A00008B81833039F0A9E0EE0CFF1C001F111FAA95D1F7CE0161E1A801970153DF88238B
:204A200069F084E088832C9A80E0DF91CF911F910F91FF90EF90DF90CF900895CE01B60169
:204A400040E052E0A5DEF1CF8F929F92BF92CF92DF92EF92FF920F931F93DF93CF930F9271
:204A6000CDB7DEB74C01B62EFC0113821082E4DC8B01249A2C9A2698259A279A249A2C9A36
:204A800085E0F401818382E58CBD1DBC8AE09FEF9EBD0DB407FEFDCF8150D1F7C40160E0AC
:204AA00020E030E0A9010EDF782FF40182838130C9F0C2DC601B710BF7E0613D7F0770F351
:204AC00081E0F40180832C9A80E00F90CF91DF911F910F91FF90EF90DF90CF90BF909F903E
:204AE0008F900895C40168E02AEA31E040E050E07983E8DE798182FF1FC0F4017383CC2481
:204B0000DD247601C40167E320E030E0A901DADEC40169E2A7019601D5DEF40182838823F5
:204B2000D9F08ADC601B710BF7E0613D7F0750F38AE0F4018083C7CF84E02FEF2EBD0DB4EB
:204B400007FEFDCF9EB5F40192838150B9F79A3A79F082E08083B7CF83818230B1F02C9A61
:204B6000FB2DF73070F088E1F401808380E0ADCF82E0F4018383C12CD12CE12CB0E4FB2E38
:204B8000C1CFF401B18281E0A0CFC4016AE320E030E0A90197DE882321F088E0F401808330
:204BA00092CF8FEF8EBD0DB407FEFDCF8EB5807C803C19F483E0F401838383E09FEF9EBD87
:204BC0000DB407FEFDCF2EB58150C9F7C8CFFC016EBDA42FB52F80E090E00DB407FEFDCFF7
:204BE0002C912EBD0DB407FEFDCF11962C9111972EBD0296129622E08030920771F70DB4D0
:204C000007FEFDCF8FEF8EBD0DB407FEFDCF8FEF8EBD0DB407FEFDCF8FEF8EBD0DB407FE7E
:204C2000FDCF8EB582838F71853029F083E180832C9A80E0089581E008950F931F93CF93B4
:204C4000DF93EC018B018FDDCE0168E572E015DE882349F485E188832C9A80E0DF91CF914D
:204C60001F910F910895CE016CEFA801B0DF882389F32C9A81E0DF91CF911F910F910895DA
:204C8000CF92DF92EF92FF920F931F93CF93DF93EC017A018B0169018B81833039F089E059
:204CA000EE0CFF1C001F111F8A95D1F7CE0168E1A801970107DE882369F086E088832C9A30
:204CC00080E0DF91CF911F910F91FF90EF90DF90CF900895CE016EEFA60179DF882379F399
:204CE000CE0168E572E0C9DD882319F487E18883E6CFCE016DE020E030E0A901E3DD88237F
:204D000019F086E18883DBCF8FEF8EBD0DB407FEFDCF8EB58823A9F72C9A81E0D2CFAF927C
:204D2000BF92CF92DF92EF92FF920F931F93CF93DF93EC015A016B017801890167E320E015
:204D400030E0A901BFDDCE0167E1A8019701BADD882379F089E088832C9A80E0DF91CF9190
:204D60001F910F91FF90EF90DF90CF90BF90AF9008958B81833039F099E0AA0CBB1CCC1C06
:204D8000DD1C9A95D1F7CE0169E1A60195019ADD882319F087E08883DFCF2C9A81E0DECFAE
:204DA000CF93DF93EC01DFDCCE0168E572E065DD882359F08DEF8EBD0DB407FEFDCFCE01AB
:204DC00068E572E05ADD882339F482E188832C9A80E0DF91CF9108952C9A81E0DF91CF912D
:204DE0000895CF93DF93EC019C012C5F3F4F898D9A8D41E050E060E070E00E948331882380
:204E0000D9F08D899E89AF89B88D0097A105B10579F48C819D81AE81BF818D8B9E8BAF8B9A
:204E2000B88F89818068898381E0DF91CF91089581E0DF91CF91089580E0DF91CF910895C4
:204E4000CF92DF92EF92FF921F93CF93DF93EC0189899A89AB89BC89803E2FEF92072FE1C8
:204E6000A20720E0B20748F080E0DF91CF911F91FF90EF90DF90CF900895CE01B2DF882334
:204E800099F30E94572F882379F3E98DFA8DCC80DD80EE80FF808EEF9FEFAFEFBFEFC80E87
:204EA000D91EEA1EFB1E058404C0CC0CDD1CEE1CFF1C0A94D2F786859785A089B189C80ED0
:204EC000D91EEA1EFB1E81E080932438C0921E36D0921F36E0922036F092213680E092E01A
:204EE000E2E2F6E3DF019C011D9221503040E1F7E98DFA8D84818230C0F011E006C01F5F97
:204F0000E98DFA8D8481181780F4B701A601410F511D611D711D809122389091233822E2D8
:204F200036E3AEDE882359F79FCF20E032E040E050E0058404C0220F331F441F551F0A94BC
:204F4000D2F789899A89AB89BC89820F931FA41FB51F898B9A8BAB8BBC8B81E086CFCF9332
:204F6000DF93EC018C859D85AE85BF8541E0662309F440E0BC01CD01DAD7882381F0288958
:204F800030E0220F331F22953295307F3227207F32272E5D394CC901DF91CF91089520E0B9
:204FA00030E0C901DF91CF9108956F927F928F929F92AF92BF92CF92DF92EF92FF920F932E
:204FC0001F93DF93CF9300D000D0CDB7DEB76C014B013A01DC015596ED90FD900D911C9181
:204FE0005897E114F10401051105F1F05E010894A11CB11C10C0D801C7010196A11DB11DC2
:2050000029813A814B815C8182179307A407B507F9F47C018D01F601818D928DB801A7016B
:205020009501CAD7882339F780E00F900F900F900F90CF91DF911F910F91FF90EF90DF90E5
:20504000CF90BF90AF909F908F907F906F900895D60159966D917C915A97FB0187898031EB
:2050600009F44CC0283F8FEF38078FEF48078FE05807D0F2F60185899689A789B08D02977C
:20508000A109B109FB01058404C0880F991FAA1FBB1F0A94D2F72685378540895189820F6F
:2050A000931FA41FB51FF40180839183A283B383FB0186859785A089B1890197A109B109BE
:2050C0002481820F911DA11DB11DA80197012250304040405040058404C0220F331F441FFA
:2050E000551F0A94D2F7820F931FA41FB51FF30180839183A283B38381E097CF283FFFEF79
:205100003F07F0E04F07F0E05F0708F0B3CF8CCFE82FF92F80E090E03EE209C0DB01A90F8C
:20512000B11D2C939F5F8F5F31968B3061F020812032C9F3883091F7DB01A90FB11D3C9303
:205140009F5F2081EBCF690F711DFB01108208951F93FB012BE030E231932150E9F7A82F0E
:20516000B92F30E017E09A2F8B2F2D91222351F4FA019083818381E0FB019081903279F0CA
:205180001F9108952F32A1F32E3261F085E898E0FC010196E491EE2351F02E17C9F780E077
:2051A0001F9108951A30D9F338E01AE0DCCF1317B0F32132A0F32F3790F7FB01E30FF11D33
:2051C000822F81568A3108F4205220833F5FCBCF0F931F93CF93DF93EC018B018B818823EB
:2051E00031F4FB018789803141F08032F1F180E0DF91CF911F910F91089582E08B831D8AD4
:205200001E8A1F8A188E808D918DA0E0B0E0880F991FAA1FBB1F880F991FAA1FBB1F880FE1
:20522000991FAA1FBB1F880F991FAA1FBB1F880F991FAA1FBB1F898B9A8BAB8BBC8B1A8FD0
:20524000098F81E089831C821D821E821F82188619861A861B861C861D861E861F86188A1D
:20526000DF91CF911F910F91089583E08B83F801428D538D648D758D4D8B5E8B6F8B788FA3
:205280009E012F5E3F4FC80124D78823C1F6AFCF2F923F924F925F926F927F928F929F92E8
:2052A000AF92BF92CF92DF92EF92FF920F931F93CF93DF938C01362FE72F2A01DC01139697
:2052C0002C911397222329F011968C91119780FD16C02FEF3FEFC901DF91CF911F910F9114
:2052E000FF90EF90DF90CF90BF90AF909F908F907F906F905F904F903F902F900895E80106
:20530000C988DA88EB88FC88488559856A857B854201AA24BB24D701C601841B950BA60BCA
:20532000B70B88169906AA06BB0608F093C04114510409F4BEC0832E9E2E6201A4E02A2ED1
:20534000312C200E311E612CF2E07F2E60C0FF2009F07AC0411551056105710509F0ABC009
:20536000E8018D899E89AF89B88D8C839D83AE83BF8346855785608971894F0D511D611D16
:20538000711D0297A109B109058404C0880F991FAA1FBB1F0A94D2F7480F591F6A1F7B1FEA
:2053A000E301CA19DB09CC16DD0608F4E601E2E0C030DE0709F452C0CB01BA0140E0B7D5C1
:2053C000882309F486CF95012E5D394CC401B901AE010E94223EAE0160E070E0F8018085BD
:2053E0009185A285B385480F591F6A1F7B1FD80118964D935D936D937C931B97CC1ADD0A61
:2054000009F457C08C0E9D1E13962C911397EFEFAE2EE1E0BE2EA422B5222230B9F1D8013A
:205420005996ED91FC915A97DB01CA0129E0B695A795979587952A95D1F7F480FA94F8225F
:20544000A114B10409F483CFE8018C819D81AE81BF818FCF2601441A550A69CF80911E3631
:2054600090911F36A0912036B0912136481759076A077B0709F4A0CF809122389091233892
:205480009401B2DA882309F0A6CF23CF39E076956795579547953A95D1F7E801E98DFA8D7B
:2054A000828D938DA48DB58D480F591F6A1F7B1F77CF920110CFD80114964D915D916D9153
:2054C0007C911797CF01910177D5882309F401CFE801E98DFA8D8C819D81AE81BF8149CF53
:2054E000DF93CF930F92CDB7DEB7BE016F5F7F4F41E050E0CDDE8130910539F02FEF3FEF0B
:20550000C9010F90CF91DF910895298130E0C9010F90CF91DF910895EF92FF920F931F93BF
:20552000CF93DF93EC018B81823050F420E030E0C901DF91CF911F910F91FF90EF90089503
:20554000E884F9840A851B85CE01CADF97FDEECF88859985AA85BB854F96A11DB11D888750
:205560009987AA87BB87D801C70115E0B695A795979587951A95D1F78F70282F30E0220F25
:20558000331F22953295307F3227207F32272E5D394CCECF8F929F92AF92BF92CF92DF92D8
:2055A000EF92FF920F931F93CF93DF93EC014A015B012B81222309F465C089899A89AB89A1
:2055C000BC8984179507A607B70708F45BC0223009F452C081149104A104B10409F46AC0C1
:2055E000488559856A857B85E98DFA8D258530E0275F3F4FDB01CA010197A109B109022E73
:2056000004C0B695A795979587950A94D2F7850174010894E108F1080109110904C0169584
:205620000795F794E7942A95D2F7E816F9060A071B07B0F58D899E89AF89B88D8C839D8382
:20564000AE83BF8384E0C82ED12CCC0EDD1E0FC04C815D816E817F81898D9A8D9601ACD4EE
:205660000894E108F10801091109882359F0E114F1040105110561F788869986AA86BB8698
:2056800081E001C080E0DF91CF911F910F91FF90EF90DF90CF90BF90AF909F908F90089513
:2056A000411551056105710529F2E81AF90A0A0B1B0BC8CF1C821D821E821F8218861986B5
:2056C0001A861B8681E0DFCF0F931F93CF93DF93EC018B81882349F0898187FD0EC0E7D35F
:2056E000DF91CF911F910F91089581E0888380E0DF91CF911F910F910895CE0161E02FDC49
:205700008C01009791F3FC018081853E71F38B818230F8F08D899E89AF89B88DF801938F41
:20572000828FB58BA48BE0911A36F0911B36309759F0B8016A5E7F4FC80148960995F801B9
:20574000808D918D938B828B89818F778983AFD3C7CF89899A89AB89BC89848F958FA68FA5
:20576000B78FD8CFCF93DF93EC01AEDF1B82DF91CF9108956F927F928F929F92AF92BF92EE
:20578000CF92DF92EF92FF920F931F93DF93CF9300D000D0CDB7DEB77C015A016B01DC0123
:2057A00013968C9113978130A1F080E00F900F900F900F90CF91DF911F910F91FF90EF902D
:2057C000DF90CF90BF90AF909F908F907F906F90089511968C91119781FFE7CFF7018189D0
:2057E0009289A389B48984179507A607B707E8F20097A105B10529F1F701608471848284C5
:205800009384C701B601A501C5DE882371F2A114B104C104D104B9F4D70155964D915D915B
:205820006D917C91589759968D919C915A97A3D6882309F4BACFF701158A168A178A108E23
:2058400040C081E0B3CFD70114964D915D916D917C91179759968D919C915A979E012F5F06
:205860003F4FAAD3882309F4A0CFD7015996ED91FC915A9749815A816B817C8187898031F4
:20588000C9F1483F8FEF58078FEF68078FE07807C0F4CF0170D6882309F487CFD7011496C5
:2058A0004D915D916D917C91179759968D919C915A970FEF1FEF2FEF3FE086D4882309F4ED
:2058C00074CFF701A18AB28AC38AD48A818180688183C701F9DE882309F467CFB601A501B3
:2058E0006A147B048C049D0410F4B401A301C70151DE5CCF483FBFEF5B07B0E06B07B0E0D2
:205900007B07F8F6C6CF1F93CF93DF93EC01142FE62FF0E0EE0FFF1FE295F295F07FFE273A
:20592000E07FFE27DF01AE5DB94C1B968C911B97817149F0842F827131F01B8280E0DF9114
:20594000CF911F91089580911E3690911F36A0912036B09121368C879D87AE87BF87688BFB
:20596000EE5DF94C84899589A0E0B0E0DC01992788278D8B9E8BAF8BB88F428D538D60E05F
:2059800070E0482B592B6A2B7B2B4D8B5E8B6F8B788F838590E0887190700097F1F4848DC5
:2059A000958DA68DB78D898B9A8BAB8BBC8B81E08B83812F8F7089831C821D821E821F82F0
:2059C000188619861A861B8614FD17C015FD1EC081E0DF91CF911F9108958031910509F0B3
:2059E000ACCF9E012F5E3F4F898D9A8D72D3882309F4A3CF84E08B83DCCFCE0140E050E09A
:205A0000BA01B8DE882311F780E099CF49895A896B897C89CE01BEDD92CF8F929F92AF92AE
:205A2000BF92CF92DF92EF92FF920F931F93CF93DF935C01EB01C42E952E822E898D9A8D1E
:205A4000D5015A969C938E935997CB0140E050E0BA01A0DDDD24E884F9840A851B858989C1
:205A60009A89AB89BC89E816F9060A071B0708F040C0CE0151DDFC01009709F476C0D801C5
:205A8000C70115E0B695A795979587951A95D1F7182F1F708081882391F0853E81F08C2D13
:205AA000992DBF014BE050E00E94153E009799F687FC5BC0C501612F482D25DF57C0DD2069
:205AC000A9F420911E3630911F364091203650912136D5011C962D933D934D935C931F9712
:205AE00050961C9350978081DD24D394882309F0B2CF86FE3AC081FE38C0DD2009F043C0AE
:205B00008B81823091F1CE019BD9882371F1C2E2D6E310E07E01EC2FFF2D80E2DF011D92F1
:205B20008A95E9F7DE018C2D992DFC018BE001900D928150E1F7E0911A36F0911B3630976D
:205B400061F1BE01625F7F4FCE0140960995888999892E853F859B8B8A8B998F888F3F8B74
:205B60002E8BA5D1882309F0A5CF80E0DF91CF911F910F91FF90EF90DF90CF90BF90AF90F4
:205B80009F908F900895F5011089C50161E0E7D9EC01009709F0BECFE8CF81E298E2998B02
:205BA000888B80E098E09F878E8720E038E081E298E2D1CF2F923F924F925F926F927F92B4
:205BC0008F929F92AF92BF92CF92DF92EF92FF920F931F93DF93CF93CDB7DEB7C454D04094
:205BE0000FB6F894DEBF0FBECDBF2C013B018E010E5B1F4FD80111965C934E9325962FAFA6
:205C000025971C861F861FA21AA66115710509F45FC0FC018381882309F05AC0CA01DA0193
:205C20002C912F3209F470C073013CE0832E912C8C0E9D1E64015E010894A11CB11C27E2D3
:205C4000222E312C2C0E3D1EB501A80181DA882369F1D801ED91FC91119780818F3241F4C0
:205C60003196D8011196FC93EE9381918F32C9F3882309F46FC0C601B701A50121E0CDDE96
:205C80008823A1F0E614F70421F0C7011DDDF7011382C814D904C9F076016401D8018D912E
:205CA0009C91B501A80154DA882399F600E08AA5882321F0CE01879607DD1AA68F858823D6
:205CC00041F0CE010C9600DD04C061017401E6CF00E0802FCC5BDF4F0FB6F894DEBF0FBE56
:205CE000CDBFCF91DF911F910F91FF90EF90DF90CF90BF90AF909F908F907F906F905F9043
:205D00004F903F902F9008959A012F5F3F4FC901F80131832083D9014C912F5F3F4F4F3254
:205D2000B1F3F30123812250223008F47DCF87E2E82EF12CEC0EFD1ED30159966D917C919C
:205D40005A97C70145DA882309F4B0CFF801808191816BCFC201B701A50125962FAD25978A
:205D60005CDE082FA4CFFB01242F6091183670911936AF011FCF0F931F93CF93DF93EC01AE
:205D8000662399F08C010E5D1F4F1093193600931836C801E7DCBE016C5F7F4FC80118DA19
:205DA000DF91CF911F910F9108958C010E5D1F4FF0CFDF92EF92FF920F931F93DF93CF9356
:205DC000CDB7DEB76C970FB6F894DEBF0FBECDBFFB01D42E19821C8220812F3229F122E209
:205DE000E22EF12CE80EF91E8E010F5F1F4FC801B701AF0121E0DEDE8823F1F08C818230C5
:205E000070F1D701F8018BE101900D928150E1F7DD2021F0F0921936E092183621E0C801A2
:205E20002C8FA0DC2C8D0CC021812223C1F6642FA2DF282F8C8102C08C8120E0882389F499
:205E4000822F6C960FB6F894DEBF0FBECDBFCF91DF911F910F91FF90EF90DF90089520E00E
:205E6000EDCF8E010F5F1F4FDACF0F931F93CF93DF938C010E942425882331F480E0DF9112
:205E8000CF911F910F910895E8012496CE01B80141E0CDD3882321F0C80161E06CDFEFCFFA
:205EA000CE01B80140E0C3D3882341F3F5CF80912438882311F481E0089540911E365091E0
:205EC0001F366091203670912136809122389091233822E236E30E944026882321F1409134
:205EE0002538509126386091273870912838411551056105710521F41092243881E00895BC
:205F0000809122389091233822E236E30E944026882359F010922538109226381092273881
:205F200010922838E9CF80E0089580E00895DF92EF92FF920F931F937B018C01D42E8091BA
:205F40001E3690911F36A0912036B09121368E159F05A007B107F1F0AADF882339F480E010
:205F60001F910F91FF90EF90DF9008958091223890912338B801A70122E236E30E94F42498
:205F8000882369F3E0921E36F0921F360093203610932136DD2049F081E0809324381F91C4
:205FA0000F91FF90EF90DF90089581E01F910F91FF90EF90DF900895CF92DF92EF92FF9278
:205FC0000F931F93CF93DF93EC017A018B01690189859A85AB85BC850196A11DB11D8417DF
:205FE0009507A607B70730F0EF89E03169F0E03209F445C080E0DF91CF911F910F91FF9075
:20600000EF90DF90CF9008959927872F762F652F2B893C894D895E89620F731F841F951F57
:2060200020911E3630911F364091203650912136621773078407950729F040E078DF882391
:20604000C9F2EF89E03169F18FE790E0A0E0B0E0E822F9220A231B23F701EE0FFF1FEE0F0C
:20606000FF1FEE5DF94C80819181A281B381BF70F60180839183A283B38381E0BCCFCB01B8
:20608000BA0127E096958795779567952A95D1F72B893C894D895E89620F731F841F951FD8
:2060A000BFCF8FEF90E0A0E0B0E0E822F9220A231B23F701EE0FFF1FEE5DF94C808191810E
:2060C000A0E0B0E0F60180839183A283B38381E092CF4F925F926F927F928F929F92AF920E
:2060E000BF92CF92DF92EF92FF920F931F93DF93CF9300D000D0CDB7DEB78C0149835A8354
:206100006B837C832901842F952FA62FB72FAC01BD01CC24DD2476015E010894A11CB11CDE
:20612000612CE2E07E2E812C912CC801950144DF882309F447C0D401C301F801058404C0EA
:20614000880F991FAA1FBB1F0A94D2F7C80ED91EEA1EFB1E49815A816B817C8187898031A9
:2061600019F1483F8FEF58078FEF68078FE07807E0F2F201C082D182E282F38281E00F90A3
:206180000F900F900F90CF91DF911F910F91FF90EF90DF90CF90BF90AF909F908F907F903B
:2061A0006F905F904F900895483FFFEF5F07F0E06F07F0E07F07E8F6C8019501FDDE88233B
:2061C00009F0B9CF80E0DBCF4F925F926F927F928F929F92AF92BF92CF92DF92EF92FF9288
:2061E0000F931F93CF93DF93EC016A017B0128013901423051056105710590F089859A85EF
:20620000AB85BC850196A11DB11D84179507A607B70730F08F89803109F456C0803291F019
:2062200080E0DF91CF911F910F91FF90EF90DF90CF90BF90AF909F908F907F906F905F9029
:206240004F9008954A015B0117E0B694A794979487941A95D1F78B899C89AD89BE89880E96
:20626000991EAA1EBB1EC501B40141E060DE8823B9F28F898031A9F18FE790E0A0E0B0E03D
:20628000C822D922EA22FB22F601EE0FFF1FEE0FFF1FEE5DF94C40825182628273828A89B2
:2062A000823078F18D819E81AF81B885880D991DAA1DBB1D8093253890932638A0932738BC
:2062C000B093283881E0ADCF852E962EA72EBB248B899C89AD89BE89880E991EAA1EBB1E6F
:2062E000C2CF8FEF90E0A0E0B0E0C822D922EA22FB22F601EE0FFF1FEE5DF94C51824082CA
:20630000CECF81E08ECF2F923F924F925F926F927F928F929F92AF92BF92CF92DF92EF9275
:20632000FF920F931F93DF93CF93CDB7DEB767970FB6F894DEBF0FBECDBF1C0149875A8778
:206340006B877C873E872D87FC0181859285A385B4859C01AD012F5F3F4F4F4F5F4F2D83F1
:206360003E834F835887ED85FE854080518062807380411451046104710409F4BEC00894B5
:20638000411C511C611C711C1F860097A105B10509F454C0D301C201CC24DD2476018E01F2
:2063A0000F5F1F4F4C8A5D8A6E8A7F8A2EC04C015D01C101B501A4019801FEDD882309F471
:2063C0003DC089819A81AB81BC810097A105B10509F44EC0A50194012F5F3F4F4F4F5F4F91
:2063E0002C8B3D8B4E8B5F8BDA01C9010894C11CD11CE11CF11CF101218532854385548556
:20640000C216D306E406F506C8F44D805E806F807884481659066A067B0648F682E0882E90
:20642000912CA12CB12C8C8A9D8AAE8ABF8AC101B501A4019801C0DD882319F680E06796CD
:206440000FB6F894DEBF0FBECDBFCF91DF911F910F91FF90EF90DF90CF90BF90AF909F903C
:206460008F907F906F905F904F903F902F900895D501C4010196A11DB11D2C013D012C8918
:206480003D894E895F89421A530A640A750A29853A854B855C85421653066406750609F024
:2064A000A5CF4C885D886E887F88C101B501A4010FEF1FEF2FEF3FE087DE882309F4BECFB2
:2064C000481459046A047B0458F59501840107C0970186014C145D046E047F0408F56801AC
:2064E00079010894C108D108E108F108C101B701A6016ADE882361F7A1CFF10140805180A3
:2065000062807380F1E0FF8729853A854B855C85213031054105510509F437CF1F8635CF62
:20652000AD85BE854D915D916D917C9113974115510561057105C1F4ED85FE85408251829E
:2065400062827382FF85FF2369F00894411C511C611C711CD1014D925D926D927C9213979C
:2065600081E06DCF81E06BCFC101930182012CDE882311F763CFAF92BF92CF92DF92EF9236
:20658000FF920F931F93DF93CF9300D000D0CDB7DEB76C017A018B0182E090E0A0E0B0E033
:2065A000F60180839183A283B3835E010894A11CB11CC601B801A7019501FEDC882339F180
:2065C000C601B801A70100E010E09801FDDD8823F1F0E980FA800B811C81F6018789803100
:2065E00059F088EFE8168FEFF8068FEF08078FE01807F8F281E00CC0F8EFEF16FFEFFF0650
:20660000F0E00F07F0E01F07A0F281E001C080E00F900F900F900F90CF91DF911F910F91EE
:20662000FF90EF90DF90CF90BF90AF9008956F927F928F929F92AF92BF92DF92EF92FF92DA
:206640000F931F93CF93DF93EC01142F70932338609322381F8A82E090E0A0E0B0E08883A1
:206660009983AA83BB8310922438109225381092263810922738109228388FEF9FEFDC01AA
:2066800080931E3690931F36A0932036B0932136442309F444C0453078F080E0DF91CF9183
:2066A0001F910F91FF90EF90DF90BF90AF909F908F907F906F90089560E070E0CB0140E00A
:2066C00036DC882351F3212F30E022953295307F3227207F32272E5E394CF901E254FE4F4D
:2066E000808190E08F7790700097B9F6F901E653FE4F80819181A281B38184369105A105FD
:20670000B10558F22A533E4FF901E080F18002811381E114F1040105110521F4BECFEE24D3
:20672000FF248701C801B70140E001DC882309F4B4CF80912D3690912E36F2E080309F07E4
:2067400009F0ABCF20913236222309F4A6CF8091303690913136009709F49FCF60912F369F
:20676000662309F49ACF2A8B6C831D8670E080E090E041E050E008C0282F2F5F2D8701967A
:206780008930910509F489CFD82E9A01082E02C0220F331F0A94E2F72617370769F76091F6
:2067A0003836709139366115710509F47FC080E090E06D837E838F8398878090303690904B
:2067C0003136AA24BB248E0C9F1CA01EB11E8B8A9C8AAD8ABE8A6090333670903436798E3F
:2067E000688E2091323630E040E050E00E94893D680D791D8A1D9B1D6A8F7B8F8C8F9D8F0E
:206800009301220F331F22953295307F3227207F322721503E4F232F3327269540E050E02E
:20682000260F371F481F591F2E873F87488B598B8091353690913636009709F440C0A0E09F
:20684000B0E0E21AF30A040B150BE80EF91E0A1F1B1F04C016950795F794E794DA94D2F7C8
:20686000E986FA860B871C8725EFE2162FE0F20620E0020720E0120758F185EFE8168FEF86
:20688000F80680E0080780E0180730F180914E3690914F36A0915036B09151368A8F9B8FEE
:2068A000AC8FBD8F80E28F8B81E0F8CE609146367091473680914836909149367ACF80913A
:2068C000423690914336A0914436B0914536B9CF8CE08F8B80E0E2CE80E18F8B81E0DECE99
:2068E000CF93DF93DC01CD91DC9111971C161D06DCF41296E0E0F0E020E030E0A901542FDA
:20690000432F322F22276D9170E080E090E0262B372B482B592B3196EC17FD0781F7B90193
